{
  "contractName": "ATM",
  "abi": [
    {
      "inputs": [
        {
          "internalType": "address",
          "name": "_token",
          "type": "address"
        },
        {
          "internalType": "address",
          "name": "_petFactory",
          "type": "address"
        }
      ],
      "stateMutability": "nonpayable",
      "type": "constructor"
    },
    {
      "anonymous": false,
      "inputs": [
        {
          "indexed": false,
          "internalType": "uint256",
          "name": "amount",
          "type": "uint256"
        }
      ],
      "name": "Bought",
      "type": "event"
    },
    {
      "anonymous": false,
      "inputs": [
        {
          "indexed": false,
          "internalType": "uint256",
          "name": "amount",
          "type": "uint256"
        }
      ],
      "name": "Burned",
      "type": "event"
    },
    {
      "anonymous": false,
      "inputs": [
        {
          "indexed": false,
          "internalType": "address",
          "name": "user",
          "type": "address"
        }
      ],
      "name": "PetCreated",
      "type": "event"
    },
    {
      "anonymous": false,
      "inputs": [
        {
          "indexed": false,
          "internalType": "uint256",
          "name": "amount",
          "type": "uint256"
        }
      ],
      "name": "Sold",
      "type": "event"
    },
    {
      "anonymous": false,
      "inputs": [
        {
          "indexed": false,
          "internalType": "address",
          "name": "from",
          "type": "address"
        },
        {
          "indexed": false,
          "internalType": "address",
          "name": "to",
          "type": "address"
        },
        {
          "indexed": false,
          "internalType": "address",
          "name": "pet",
          "type": "address"
        },
        {
          "indexed": false,
          "internalType": "uint256",
          "name": "value",
          "type": "uint256"
        }
      ],
      "name": "TradeDeclined",
      "type": "event"
    },
    {
      "anonymous": false,
      "inputs": [
        {
          "indexed": false,
          "internalType": "address",
          "name": "from",
          "type": "address"
        },
        {
          "indexed": false,
          "internalType": "address",
          "name": "to",
          "type": "address"
        }
      ],
      "name": "TradeFinished",
      "type": "event"
    },
    {
      "anonymous": false,
      "inputs": [
        {
          "indexed": false,
          "internalType": "address",
          "name": "from",
          "type": "address"
        },
        {
          "indexed": false,
          "internalType": "address",
          "name": "to",
          "type": "address"
        },
        {
          "indexed": false,
          "internalType": "address",
          "name": "pet",
          "type": "address"
        },
        {
          "indexed": false,
          "internalType": "uint256",
          "name": "value",
          "type": "uint256"
        }
      ],
      "name": "TradeRequest",
      "type": "event"
    },
    {
      "inputs": [],
      "name": "BASIC_PET_PRICE",
      "outputs": [
        {
          "internalType": "uint256",
          "name": "",
          "type": "uint256"
        }
      ],
      "stateMutability": "view",
      "type": "function"
    },
    {
      "inputs": [],
      "name": "ETHER",
      "outputs": [
        {
          "internalType": "uint256",
          "name": "",
          "type": "uint256"
        }
      ],
      "stateMutability": "view",
      "type": "function"
    },
    {
      "inputs": [],
      "name": "TOKEN_DECIMAL",
      "outputs": [
        {
          "internalType": "uint256",
          "name": "",
          "type": "uint256"
        }
      ],
      "stateMutability": "view",
      "type": "function"
    },
    {
      "inputs": [],
      "name": "TOKEN_PRICE_BUY",
      "outputs": [
        {
          "internalType": "uint256",
          "name": "",
          "type": "uint256"
        }
      ],
      "stateMutability": "view",
      "type": "function"
    },
    {
      "inputs": [],
      "name": "TOKEN_PRICE_SELL",
      "outputs": [
        {
          "internalType": "uint256",
          "name": "",
          "type": "uint256"
        }
      ],
      "stateMutability": "view",
      "type": "function"
    },
    {
      "inputs": [],
      "name": "petFactory",
      "outputs": [
        {
          "internalType": "contract PetFactory",
          "name": "",
          "type": "address"
        }
      ],
      "stateMutability": "view",
      "type": "function"
    },
    {
      "inputs": [
        {
          "internalType": "address",
          "name": "",
          "type": "address"
        },
        {
          "internalType": "uint256",
          "name": "",
          "type": "uint256"
        }
      ],
      "name": "pets",
      "outputs": [
        {
          "internalType": "address",
          "name": "",
          "type": "address"
        }
      ],
      "stateMutability": "view",
      "type": "function"
    },
    {
      "inputs": [],
      "name": "token",
      "outputs": [
        {
          "internalType": "contract IERC20",
          "name": "",
          "type": "address"
        }
      ],
      "stateMutability": "view",
      "type": "function"
    },
    {
      "inputs": [],
      "name": "trades",
      "outputs": [
        {
          "internalType": "contract Trades",
          "name": "",
          "type": "address"
        }
      ],
      "stateMutability": "view",
      "type": "function"
    },
    {
      "inputs": [
        {
          "internalType": "address",
          "name": "test",
          "type": "address"
        }
      ],
      "name": "setATMOwner",
      "outputs": [],
      "stateMutability": "nonpayable",
      "type": "function"
    },
    {
      "inputs": [],
      "name": "getOwner",
      "outputs": [
        {
          "internalType": "address",
          "name": "",
          "type": "address"
        }
      ],
      "stateMutability": "view",
      "type": "function"
    },
    {
      "inputs": [],
      "name": "getTradeContract",
      "outputs": [
        {
          "internalType": "address",
          "name": "",
          "type": "address"
        }
      ],
      "stateMutability": "view",
      "type": "function"
    },
    {
      "inputs": [],
      "name": "buyToken",
      "outputs": [],
      "stateMutability": "payable",
      "type": "function"
    },
    {
      "inputs": [
        {
          "internalType": "uint256",
          "name": "amount",
          "type": "uint256"
        }
      ],
      "name": "sellToken",
      "outputs": [],
      "stateMutability": "nonpayable",
      "type": "function"
    },
    {
      "inputs": [
        {
          "internalType": "uint256",
          "name": "amount",
          "type": "uint256"
        },
        {
          "internalType": "address",
          "name": "user",
          "type": "address"
        }
      ],
      "name": "burnToken",
      "outputs": [],
      "stateMutability": "nonpayable",
      "type": "function"
    },
    {
      "inputs": [],
      "name": "getTokenAmount",
      "outputs": [
        {
          "internalType": "uint256",
          "name": "",
          "type": "uint256"
        }
      ],
      "stateMutability": "view",
      "type": "function"
    },
    {
      "inputs": [
        {
          "internalType": "string",
          "name": "_petName",
          "type": "string"
        },
        {
          "internalType": "uint256",
          "name": "_race",
          "type": "uint256"
        }
      ],
      "name": "buyPet",
      "outputs": [],
      "stateMutability": "nonpayable",
      "type": "function"
    },
    {
      "inputs": [
        {
          "internalType": "address",
          "name": "_pet",
          "type": "address"
        }
      ],
      "name": "updatePet",
      "outputs": [],
      "stateMutability": "nonpayable",
      "type": "function"
    },
    {
      "inputs": [
        {
          "internalType": "address",
          "name": "_pet",
          "type": "address"
        }
      ],
      "name": "getPetLevel",
      "outputs": [
        {
          "internalType": "uint256",
          "name": "",
          "type": "uint256"
        }
      ],
      "stateMutability": "view",
      "type": "function"
    },
    {
      "inputs": [],
      "name": "getAllPets",
      "outputs": [
        {
          "internalType": "address[]",
          "name": "",
          "type": "address[]"
        }
      ],
      "stateMutability": "view",
      "type": "function"
    },
    {
      "inputs": [
        {
          "internalType": "address",
          "name": "_pet",
          "type": "address"
        }
      ],
      "name": "removePet",
      "outputs": [],
      "stateMutability": "nonpayable",
      "type": "function"
    },
    {
      "inputs": [
        {
          "internalType": "address",
          "name": "_pet",
          "type": "address"
        },
        {
          "internalType": "address",
          "name": "_to",
          "type": "address"
        },
        {
          "internalType": "uint256",
          "name": "_value",
          "type": "uint256"
        }
      ],
      "name": "sellPet",
      "outputs": [],
      "stateMutability": "nonpayable",
      "type": "function"
    },
    {
      "inputs": [
        {
          "internalType": "address",
          "name": "_pet",
          "type": "address"
        },
        {
          "internalType": "address",
          "name": "_seller",
          "type": "address"
        },
        {
          "internalType": "uint256",
          "name": "_value",
          "type": "uint256"
        }
      ],
      "name": "acceptPetTrade",
      "outputs": [
        {
          "internalType": "bool",
          "name": "",
          "type": "bool"
        }
      ],
      "stateMutability": "nonpayable",
      "type": "function"
    },
    {
      "inputs": [
        {
          "internalType": "address",
          "name": "_pet",
          "type": "address"
        },
        {
          "internalType": "address",
          "name": "_seller",
          "type": "address"
        },
        {
          "internalType": "uint256",
          "name": "_value",
          "type": "uint256"
        }
      ],
      "name": "declinePetTrade",
      "outputs": [],
      "stateMutability": "nonpayable",
      "type": "function"
    },
    {
      "inputs": [],
      "name": "payout",
      "outputs": [],
      "stateMutability": "nonpayable",
      "type": "function"
    },
    {
      "inputs": [
        {
          "internalType": "address",
          "name": "_user",
          "type": "address"
        },
        {
          "internalType": "address",
          "name": "_pet",
          "type": "address"
        }
      ],
      "name": "deletePet",
      "outputs": [],
      "stateMutability": "nonpayable",
      "type": "function"
    }
  ],
  "bytecode": "0x60806040523480156200001157600080fd5b5060405162005a0538038062005a058339818101604052810190620000379190620002d0565b604051620000459062000258565b604051809103906000f08015801562000062573d6000803e3d6000fd5b50600160006101000a81548173ffffffffffffffffffffffffffffffffffffffff021916908373ffffffffffffffffffffffffffffffffffffffff160217905550816000806101000a81548173ffffffffffffffffffffffffffffffffffffffff021916908373ffffffffffffffffffffffffffffffffffffffff16021790555060008054906101000a900473ffffffffffffffffffffffffffffffffffffffff1673ffffffffffffffffffffffffffffffffffffffff166314ac36d16040518163ffffffff1660e01b81526004016020604051808303816000875af115801562000151573d6000803e3d6000fd5b505050506040513d601f19601f8201168201806040525081019062000177919062000317565b5080600260006101000a81548173ffffffffffffffffffffffffffffffffffffffff021916908373ffffffffffffffffffffffffffffffffffffffff160217905550600260009054906101000a900473ffffffffffffffffffffffffffffffffffffffff1673ffffffffffffffffffffffffffffffffffffffff166347c92a146040518163ffffffff1660e01b81526004016020604051808303816000875af115801562000229573d6000803e3d6000fd5b505050506040513d601f19601f820116820180604052508101906200024f919062000317565b50505062000349565b61155380620044b283390190565b600080fd5b600073ffffffffffffffffffffffffffffffffffffffff82169050919050565b600062000298826200026b565b9050919050565b620002aa816200028b565b8114620002b657600080fd5b50565b600081519050620002ca816200029f565b92915050565b60008060408385031215620002ea57620002e962000266565b5b6000620002fa85828601620002b9565b92505060206200030d85828601620002b9565b9150509250929050565b60006020828403121562000330576200032f62000266565b5b60006200034084828501620002b9565b91505092915050565b61415980620003596000396000f3fe6080604052600436106101815760003560e01c8063a0f377af116100d1578063c2f3acb71161008a578063dc593ca511610064578063dc593ca51461052b578063e869a3ed14610554578063fc0c546a1461057d578063fe7f361d146105a857610181565b8063c2f3acb71461049c578063c3c50f5b146104d9578063d66663bc1461050257610181565b8063a0f377af146103bf578063a4821719146103e8578063a6b909e1146103f2578063b23e33881461041d578063b75be3ba14610448578063bfefdaac1461047157610181565b806342cb1fbc1161013e57806363bd1d4a1161011857806363bd1d4a146103275780636a921f041461033e57806375f91ec814610369578063893d20e81461039457610181565b806342cb1fbc146102a85780635b236d97146102d35780635b38e344146102fe57610181565b80630cb6b577146101865780632397e4d7146101b1578063248847ff146101da578063249748781461020357806331ad5a771461022e5780633ee20a891461026b575b600080fd5b34801561019257600080fd5b5061019b6105d3565b6040516101a891906130ed565b60405180910390f35b3480156101bd57600080fd5b506101d860048036038101906101d39190613148565b6105d8565b005b3480156101e657600080fd5b5061020160048036038101906101fc91906131d3565b6107c8565b005b34801561020f57600080fd5b5061021861082b565b604051610225919061325f565b60405180910390f35b34801561023a57600080fd5b50610255600480360381019061025091906131d3565b610851565b60405161026291906130ed565b60405180910390f35b34801561027757600080fd5b50610292600480360381019061028d919061327a565b610963565b60405161029f91906132c9565b60405180910390f35b3480156102b457600080fd5b506102bd6109b1565b6040516102ca91906130ed565b60405180910390f35b3480156102df57600080fd5b506102e86109bd565b6040516102f591906133a2565b60405180910390f35b34801561030a57600080fd5b50610325600480360381019061032091906133c4565b610a88565b005b34801561033357600080fd5b5061033c610df5565b005b34801561034a57600080fd5b50610353610eba565b60405161036091906132c9565b60405180910390f35b34801561037557600080fd5b5061037e610ee4565b60405161038b91906130ed565b60405180910390f35b3480156103a057600080fd5b506103a9610f86565b6040516103b691906132c9565b60405180910390f35b3480156103cb57600080fd5b506103e660048036038101906103e1919061354a565b610fb0565b005b6103f061130d565b005b3480156103fe57600080fd5b506104076114ce565b60405161041491906135c7565b60405180910390f35b34801561042957600080fd5b506104326114f4565b60405161043f91906130ed565b60405180910390f35b34801561045457600080fd5b5061046f600480360381019061046a91906135e2565b6114f9565b005b34801561047d57600080fd5b50610486611b89565b60405161049391906130ed565b60405180910390f35b3480156104a857600080fd5b506104c360048036038101906104be91906135e2565b611b8e565b6040516104d09190613650565b60405180910390f35b3480156104e557600080fd5b5061050060048036038101906104fb91906131d3565b61258e565b005b34801561050e57600080fd5b50610529600480360381019061052491906131d3565b612663565b005b34801561053757600080fd5b50610552600480360381019061054d919061366b565b6128b3565b005b34801561056057600080fd5b5061057b600480360381019061057691906135e2565b612b5d565b005b34801561058957600080fd5b506105926130ab565b60405161059f91906136cc565b60405180910390f35b3480156105b457600080fd5b506105bd6130cf565b6040516105ca91906130ed565b60405180910390f35b600a81565b6000811161061b576040517f08c379a000000000000000000000000000000000000000000000000000000000815260040161061290613744565b60405180910390fd5b6000600a8261062a9190613793565b1461066a576040517f08c379a000000000000000000000000000000000000000000000000000000000815260040161066190613810565b60405180910390fd5b60008054906101000a900473ffffffffffffffffffffffffffffffffffffffff1673ffffffffffffffffffffffffffffffffffffffff1663d1df306c33836040518363ffffffff1660e01b81526004016106c5929190613830565b6020604051808303816000875af11580156106e4573d6000803e3d6000fd5b505050506040513d601f19601f820116820180604052508101906107089190613885565b503373ffffffffffffffffffffffffffffffffffffffff166108fc6064670de0b6b3a76400008461073991906138e1565b610743919061393b565b9081150290604051600060405180830381858888f1935050505015801561076e573d6000803e3d6000fd5b507f92f64ca637d023f354075a4be751b169c1a8a9ccb6d33cdd0cb3520543995727670de0b6b3a76400006064836107a6919061393b565b6107b091906138e1565b6040516107bd91906130ed565b60405180910390a150565b8073ffffffffffffffffffffffffffffffffffffffff1663a2e620456040518163ffffffff1660e01b8152600401600060405180830381600087803b15801561081057600080fd5b505af1158015610824573d6000803e3d6000fd5b5050505050565b600260009054906101000a900473ffffffffffffffffffffffffffffffffffffffff1681565b600060011515600560003373ffffffffffffffffffffffffffffffffffffffff1673ffffffffffffffffffffffffffffffffffffffff16815260200190815260200160002060008473ffffffffffffffffffffffffffffffffffffffff1673ffffffffffffffffffffffffffffffffffffffff16815260200190815260200160002060009054906101000a900460ff161515146108ed57600080fd5b8173ffffffffffffffffffffffffffffffffffffffff16638fb257666040518163ffffffff1660e01b8152600401602060405180830381865afa158015610938573d6000803e3d6000fd5b505050506040513d601f19601f8201168201806040525081019061095c9190613981565b9050919050565b6004602052816000526040600020818154811061097f57600080fd5b906000526020600020016000915091509054906101000a900473ffffffffffffffffffffffffffffffffffffffff1681565b670de0b6b3a764000081565b6060600460003373ffffffffffffffffffffffffffffffffffffffff1673ffffffffffffffffffffffffffffffffffffffff168152602001908152602001600020805480602002602001604051908101604052809291908181526020018280548015610a7e57602002820191906000526020600020905b8160009054906101000a900473ffffffffffffffffffffffffffffffffffffffff1673ffffffffffffffffffffffffffffffffffffffff1681526020019060010190808311610a34575b5050505050905090565b3073ffffffffffffffffffffffffffffffffffffffff163373ffffffffffffffffffffffffffffffffffffffff1614610af6576040517f08c379a0000000000000000000000000000000000000000000000000000000008152600401610aed906139fa565b60405180910390fd5b60005b600460008473ffffffffffffffffffffffffffffffffffffffff1673ffffffffffffffffffffffffffffffffffffffff16815260200190815260200160002080549050811015610df0578173ffffffffffffffffffffffffffffffffffffffff16600460008573ffffffffffffffffffffffffffffffffffffffff1673ffffffffffffffffffffffffffffffffffffffff1681526020019081526020016000208281548110610bab57610baa613a1a565b5b9060005260206000200160009054906101000a900473ffffffffffffffffffffffffffffffffffffffff1673ffffffffffffffffffffffffffffffffffffffff1603610ddd57600460008473ffffffffffffffffffffffffffffffffffffffff1673ffffffffffffffffffffffffffffffffffffffff1681526020019081526020016000206001600460008673ffffffffffffffffffffffffffffffffffffffff1673ffffffffffffffffffffffffffffffffffffffff16815260200190815260200160002080549050610c7f9190613a49565b81548110610c9057610c8f613a1a565b5b9060005260206000200160009054906101000a900473ffffffffffffffffffffffffffffffffffffffff16600460008573ffffffffffffffffffffffffffffffffffffffff1673ffffffffffffffffffffffffffffffffffffffff1681526020019081526020016000208281548110610d0c57610d0b613a1a565b5b9060005260206000200160006101000a81548173ffffffffffffffffffffffffffffffffffffffff021916908373ffffffffffffffffffffffffffffffffffffffff160217905550600460008473ffffffffffffffffffffffffffffffffffffffff1673ffffffffffffffffffffffffffffffffffffffff168152602001908152602001600020805480610da357610da2613a7d565b5b6001900381819060005260206000200160006101000a81549073ffffffffffffffffffffffffffffffffffffffff02191690559055610df0565b8080610de890613aac565b915050610af9565b505050565b600360009054906101000a900473ffffffffffffffffffffffffffffffffffffffff1673ffffffffffffffffffffffffffffffffffffffff163373ffffffffffffffffffffffffffffffffffffffff1614610e4f57600080fd5b600360009054906101000a900473ffffffffffffffffffffffffffffffffffffffff1673ffffffffffffffffffffffffffffffffffffffff166108fc479081150290604051600060405180830381858888f19350505050158015610eb7573d6000803e3d6000fd5b50565b6000600160009054906101000a900473ffffffffffffffffffffffffffffffffffffffff16905090565b60008060009054906101000a900473ffffffffffffffffffffffffffffffffffffffff1673ffffffffffffffffffffffffffffffffffffffff166370a08231336040518263ffffffff1660e01b8152600401610f4091906132c9565b602060405180830381865afa158015610f5d573d6000803e3d6000fd5b505050506040513d601f19601f82011682018060405250810190610f819190613981565b905090565b6000600360009054906101000a900473ffffffffffffffffffffffffffffffffffffffff16905090565b600a60008054906101000a900473ffffffffffffffffffffffffffffffffffffffff1673ffffffffffffffffffffffffffffffffffffffff166370a08231336040518263ffffffff1660e01b815260040161100b91906132c9565b602060405180830381865afa158015611028573d6000803e3d6000fd5b505050506040513d601f19601f8201168201806040525081019061104c9190613981565b101561108d576040517f08c379a000000000000000000000000000000000000000000000000000000000815260040161108490613b40565b60405180910390fd5b60008054906101000a900473ffffffffffffffffffffffffffffffffffffffff1673ffffffffffffffffffffffffffffffffffffffff1663d1df306c33600a6040518363ffffffff1660e01b81526004016110e9929190613830565b6020604051808303816000875af1158015611108573d6000803e3d6000fd5b505050506040513d601f19601f8201168201806040525081019061112c9190613885565b506000600260009054906101000a900473ffffffffffffffffffffffffffffffffffffffff1673ffffffffffffffffffffffffffffffffffffffff16639a8fca663385856040518463ffffffff1660e01b815260040161118e93929190613bd7565b6020604051808303816000875af11580156111ad573d6000803e3d6000fd5b505050506040513d601f19601f820116820180604052508101906111d19190613c2a565b9050600460003373ffffffffffffffffffffffffffffffffffffffff1673ffffffffffffffffffffffffffffffffffffffff168152602001908152602001600020819080600181540180825580915050600190039060005260206000200160009091909190916101000a81548173ffffffffffffffffffffffffffffffffffffffff021916908373ffffffffffffffffffffffffffffffffffffffff1602179055506001600560003373ffffffffffffffffffffffffffffffffffffffff1673ffffffffffffffffffffffffffffffffffffffff16815260200190815260200160002060008373ffffffffffffffffffffffffffffffffffffffff1673ffffffffffffffffffffffffffffffffffffffff16815260200190815260200160002060006101000a81548160ff021916908315150217905550505050565b60003490506000600a670de0b6b3a7640000611329919061393b565b826113349190613793565b14611374576040517f08c379a000000000000000000000000000000000000000000000000000000000815260040161136b90613810565b60405180910390fd5b600081116113b7576040517f08c379a00000000000000000000000000000000000000000000000000000000081526004016113ae90613744565b60405180910390fd5b60008054906101000a900473ffffffffffffffffffffffffffffffffffffffff1673ffffffffffffffffffffffffffffffffffffffff166379c6506833670de0b6b3a764000084606461140a91906138e1565b611414919061393b565b6040518363ffffffff1660e01b8152600401611431929190613830565b6020604051808303816000875af1158015611450573d6000803e3d6000fd5b505050506040513d601f19601f820116820180604052508101906114749190613885565b507f4e08ba899977cf7d4c2964bce71c6b9a7ef76ee5166a4c1249a1e08016e33ef1670de0b6b3a76400008260646114ac91906138e1565b6114b6919061393b565b6040516114c391906130ed565b60405180910390a150565b600160009054906101000a900473ffffffffffffffffffffffffffffffffffffffff1681565b606481565b60011515600560003373ffffffffffffffffffffffffffffffffffffffff1673ffffffffffffffffffffffffffffffffffffffff16815260200190815260200160002060008573ffffffffffffffffffffffffffffffffffffffff1673ffffffffffffffffffffffffffffffffffffffff16815260200190815260200160002060009054906101000a900460ff161515146115c9576040517f08c379a00000000000000000000000000000000000000000000000000000000081526004016115c090613ca3565b60405180910390fd5b60001515600760008473ffffffffffffffffffffffffffffffffffffffff1673ffffffffffffffffffffffffffffffffffffffff16815260200190815260200160002060003373ffffffffffffffffffffffffffffffffffffffff1673ffffffffffffffffffffffffffffffffffffffff16815260200190815260200160002060009054906101000a900460ff16151514611699576040517f08c379a000000000000000000000000000000000000000000000000000000000815260040161169090613d35565b60405180910390fd5b60001515600660008573ffffffffffffffffffffffffffffffffffffffff1673ffffffffffffffffffffffffffffffffffffffff16815260200190815260200160002060009054906101000a900460ff1615151461172c576040517f08c379a000000000000000000000000000000000000000000000000000000000815260040161172390613dc7565b60405180910390fd5b8273ffffffffffffffffffffffffffffffffffffffff1663a2e620456040518163ffffffff1660e01b8152600401600060405180830381600087803b15801561177457600080fd5b505af1158015611788573d6000803e3d6000fd5b50505050600015158373ffffffffffffffffffffffffffffffffffffffff166326e81fb96040518163ffffffff1660e01b8152600401602060405180830381865afa1580156117db573d6000803e3d6000fd5b505050506040513d601f19601f820116820180604052508101906117ff9190613885565b151503611841576040517f08c379a000000000000000000000000000000000000000000000000000000000815260040161183890613e33565b60405180910390fd5b6001600760008473ffffffffffffffffffffffffffffffffffffffff1673ffffffffffffffffffffffffffffffffffffffff16815260200190815260200160002060003373ffffffffffffffffffffffffffffffffffffffff1673ffffffffffffffffffffffffffffffffffffffff16815260200190815260200160002060006101000a81548160ff0219169083151502179055506001600660008573ffffffffffffffffffffffffffffffffffffffff1673ffffffffffffffffffffffffffffffffffffffff16815260200190815260200160002060006101000a81548160ff021916908315150217905550600160009054906101000a900473ffffffffffffffffffffffffffffffffffffffff1673ffffffffffffffffffffffffffffffffffffffff1663d84a1d53338486856040518563ffffffff1660e01b815260040161198f9493929190613e53565b600060405180830381600087803b1580156119a957600080fd5b505af11580156119bd573d6000803e3d6000fd5b50505050600160009054906101000a900473ffffffffffffffffffffffffffffffffffffffff1673ffffffffffffffffffffffffffffffffffffffff16634e6e35d2833386856040518563ffffffff1660e01b8152600401611a229493929190613e53565b600060405180830381600087803b158015611a3c57600080fd5b505af1158015611a50573d6000803e3d6000fd5b505050506001600860003373ffffffffffffffffffffffffffffffffffffffff1673ffffffffffffffffffffffffffffffffffffffff16815260200190815260200160002060008473ffffffffffffffffffffffffffffffffffffffff1673ffffffffffffffffffffffffffffffffffffffff16815260200190815260200160002060008573ffffffffffffffffffffffffffffffffffffffff1673ffffffffffffffffffffffffffffffffffffffff168152602001908152602001600020600083815260200190815260200160002060006101000a81548160ff02191690836002811115611b4257611b41613e98565b5b02179055507f6bc6074d963ab0baded750aa8bee573012706e9b160aac9a41e722e9e036f23e33838584604051611b7c9493929190613e53565b60405180910390a1505050565b600a81565b60008160008054906101000a900473ffffffffffffffffffffffffffffffffffffffff1673ffffffffffffffffffffffffffffffffffffffff166370a08231336040518263ffffffff1660e01b8152600401611bea91906132c9565b602060405180830381865afa158015611c07573d6000803e3d6000fd5b505050506040513d601f19601f82011682018060405250810190611c2b9190613981565b1015611c6c576040517f08c379a0000000000000000000000000000000000000000000000000000000008152600401611c6390613b40565b60405180910390fd5b60016002811115611c8057611c7f613e98565b5b600860008573ffffffffffffffffffffffffffffffffffffffff1673ffffffffffffffffffffffffffffffffffffffff16815260200190815260200160002060003373ffffffffffffffffffffffffffffffffffffffff1673ffffffffffffffffffffffffffffffffffffffff16815260200190815260200160002060008673ffffffffffffffffffffffffffffffffffffffff1673ffffffffffffffffffffffffffffffffffffffff168152602001908152602001600020600084815260200190815260200160002060009054906101000a900460ff166002811115611d6a57611d69613e98565b5b14611daa576040517f08c379a0000000000000000000000000000000000000000000000000000000008152600401611da190613f39565b60405180910390fd5b8373ffffffffffffffffffffffffffffffffffffffff1663a2e620456040518163ffffffff1660e01b8152600401600060405180830381600087803b158015611df257600080fd5b505af1158015611e06573d6000803e3d6000fd5b50505050600015158473ffffffffffffffffffffffffffffffffffffffff166326e81fb96040518163ffffffff1660e01b8152600401602060405180830381865afa158015611e59573d6000803e3d6000fd5b505050506040513d601f19601f82011682018060405250810190611e7d9190613885565b151503611ebf576040517f08c379a0000000000000000000000000000000000000000000000000000000008152600401611eb690613e33565b60405180910390fd5b60008054906101000a900473ffffffffffffffffffffffffffffffffffffffff1673ffffffffffffffffffffffffffffffffffffffff166323b872dd3385856040518463ffffffff1660e01b8152600401611f1c93929190613f59565b6020604051808303816000875af1158015611f3b573d6000803e3d6000fd5b505050506040513d601f19601f82011682018060405250810190611f5f9190613885565b506002600860008573ffffffffffffffffffffffffffffffffffffffff1673ffffffffffffffffffffffffffffffffffffffff16815260200190815260200160002060003373ffffffffffffffffffffffffffffffffffffffff1673ffffffffffffffffffffffffffffffffffffffff16815260200190815260200160002060008673ffffffffffffffffffffffffffffffffffffffff1673ffffffffffffffffffffffffffffffffffffffff168152602001908152602001600020600084815260200190815260200160002060006101000a81548160ff0219169083600281111561204e5761204d613e98565b5b02179055506000600760003373ffffffffffffffffffffffffffffffffffffffff1673ffffffffffffffffffffffffffffffffffffffff16815260200190815260200160002060008573ffffffffffffffffffffffffffffffffffffffff1673ffffffffffffffffffffffffffffffffffffffff16815260200190815260200160002060006101000a81548160ff0219169083151502179055506000600660008673ffffffffffffffffffffffffffffffffffffffff1673ffffffffffffffffffffffffffffffffffffffff16815260200190815260200160002060006101000a81548160ff02191690831515021790555060008473ffffffffffffffffffffffffffffffffffffffff1663a6f9dae1336040518263ffffffff1660e01b815260040161217b91906132c9565b6020604051808303816000875af115801561219a573d6000803e3d6000fd5b505050506040513d601f19601f820116820180604052508101906121be9190613c2a565b90503073ffffffffffffffffffffffffffffffffffffffff16635b38e34485876040518363ffffffff1660e01b81526004016121fb929190613f90565b600060405180830381600087803b15801561221557600080fd5b505af1158015612229573d6000803e3d6000fd5b50505050600160009054906101000a900473ffffffffffffffffffffffffffffffffffffffff1673ffffffffffffffffffffffffffffffffffffffff166371c0b8ed85336040518363ffffffff1660e01b815260040161228a929190613f90565b600060405180830381600087803b1580156122a457600080fd5b505af11580156122b8573d6000803e3d6000fd5b50505050600160009054906101000a900473ffffffffffffffffffffffffffffffffffffffff1673ffffffffffffffffffffffffffffffffffffffff1663e45de78485336040518363ffffffff1660e01b8152600401612319929190613f90565b600060405180830381600087803b15801561233357600080fd5b505af1158015612347573d6000803e3d6000fd5b505050506000600560008673ffffffffffffffffffffffffffffffffffffffff1673ffffffffffffffffffffffffffffffffffffffff16815260200190815260200160002060008773ffffffffffffffffffffffffffffffffffffffff1673ffffffffffffffffffffffffffffffffffffffff16815260200190815260200160002060006101000a81548160ff021916908315150217905550600460003373ffffffffffffffffffffffffffffffffffffffff1673ffffffffffffffffffffffffffffffffffffffff168152602001908152602001600020859080600181540180825580915050600190039060005260206000200160009091909190916101000a81548173ffffffffffffffffffffffffffffffffffffffff021916908373ffffffffffffffffffffffffffffffffffffffff1602179055506001600560003373ffffffffffffffffffffffffffffffffffffffff1673ffffffffffffffffffffffffffffffffffffffff16815260200190815260200160002060008773ffffffffffffffffffffffffffffffffffffffff1673ffffffffffffffffffffffffffffffffffffffff16815260200190815260200160002060006101000a81548160ff0219169083151502179055503373ffffffffffffffffffffffffffffffffffffffff168173ffffffffffffffffffffffffffffffffffffffff1603612582577f1c30333ce82dd73903cf9ecd7ac2e531ad10efc50cd14eb50b5850521bf1fb718433604051612579929190613f90565b60405180910390a15b60019150509392505050565b600073ffffffffffffffffffffffffffffffffffffffff16600360009054906101000a900473ffffffffffffffffffffffffffffffffffffffff1673ffffffffffffffffffffffffffffffffffffffff161461261f576040517f08c379a000000000000000000000000000000000000000000000000000000000815260040161261690614005565b60405180910390fd5b80600360006101000a81548173ffffffffffffffffffffffffffffffffffffffff021916908373ffffffffffffffffffffffffffffffffffffffff16021790555050565b60011515600560003373ffffffffffffffffffffffffffffffffffffffff1673ffffffffffffffffffffffffffffffffffffffff16815260200190815260200160002060008373ffffffffffffffffffffffffffffffffffffffff1673ffffffffffffffffffffffffffffffffffffffff16815260200190815260200160002060009054906101000a900460ff16151514612733576040517f08c379a000000000000000000000000000000000000000000000000000000000815260040161272a90613ca3565b60405180910390fd5b600015158173ffffffffffffffffffffffffffffffffffffffff166326e81fb96040518163ffffffff1660e01b8152600401602060405180830381865afa158015612782573d6000803e3d6000fd5b505050506040513d601f19601f820116820180604052508101906127a69190613885565b1515036128b0576000600560003373ffffffffffffffffffffffffffffffffffffffff1673ffffffffffffffffffffffffffffffffffffffff16815260200190815260200160002060008373ffffffffffffffffffffffffffffffffffffffff1673ffffffffffffffffffffffffffffffffffffffff16815260200190815260200160002060006101000a81548160ff0219169083151502179055503073ffffffffffffffffffffffffffffffffffffffff16635b38e34433836040518363ffffffff1660e01b815260040161287d929190613f90565b600060405180830381600087803b15801561289757600080fd5b505af11580156128ab573d6000803e3d6000fd5b505050505b50565b600082116128f6576040517f08c379a00000000000000000000000000000000000000000000000000000000081526004016128ed90613744565b60405180910390fd5b6000600a670de0b6b3a764000061290d919061393b565b670de0b6b3a7640000606485612923919061393b565b61292d91906138e1565b6129379190613793565b14612977576040517f08c379a000000000000000000000000000000000000000000000000000000000815260040161296e90613810565b60405180910390fd5b3073ffffffffffffffffffffffffffffffffffffffff163373ffffffffffffffffffffffffffffffffffffffff161480612a3e575060011515600560008373ffffffffffffffffffffffffffffffffffffffff1673ffffffffffffffffffffffffffffffffffffffff16815260200190815260200160002060003373ffffffffffffffffffffffffffffffffffffffff1673ffffffffffffffffffffffffffffffffffffffff16815260200190815260200160002060009054906101000a900460ff161515145b15612b1e5760008054906101000a900473ffffffffffffffffffffffffffffffffffffffff1673ffffffffffffffffffffffffffffffffffffffff1663d1df306c82846040518363ffffffff1660e01b8152600401612a9e929190613830565b6020604051808303816000875af1158015612abd573d6000803e3d6000fd5b505050506040513d601f19601f82011682018060405250810190612ae19190613885565b507fd83c63197e8e676d80ab0122beba9a9d20f3828839e9a1d6fe81d242e9cd7e6e82604051612b1191906130ed565b60405180910390a1612b59565b6040517f08c379a0000000000000000000000000000000000000000000000000000000008152600401612b5090614097565b60405180910390fd5b5050565b60016002811115612b7157612b70613e98565b5b600860008473ffffffffffffffffffffffffffffffffffffffff1673ffffffffffffffffffffffffffffffffffffffff16815260200190815260200160002060003373ffffffffffffffffffffffffffffffffffffffff1673ffffffffffffffffffffffffffffffffffffffff16815260200190815260200160002060008573ffffffffffffffffffffffffffffffffffffffff1673ffffffffffffffffffffffffffffffffffffffff168152602001908152602001600020600083815260200190815260200160002060009054906101000a900460ff166002811115612c5b57612c5a613e98565b5b14612c9b576040517f08c379a0000000000000000000000000000000000000000000000000000000008152600401612c9290613f39565b60405180910390fd5b60011515600760003373ffffffffffffffffffffffffffffffffffffffff1673ffffffffffffffffffffffffffffffffffffffff16815260200190815260200160002060008473ffffffffffffffffffffffffffffffffffffffff1673ffffffffffffffffffffffffffffffffffffffff16815260200190815260200160002060009054906101000a900460ff16151514612d6b576040517f08c379a0000000000000000000000000000000000000000000000000000000008152600401612d6290614103565b60405180910390fd5b6002600860008473ffffffffffffffffffffffffffffffffffffffff1673ffffffffffffffffffffffffffffffffffffffff16815260200190815260200160002060003373ffffffffffffffffffffffffffffffffffffffff1673ffffffffffffffffffffffffffffffffffffffff16815260200190815260200160002060008573ffffffffffffffffffffffffffffffffffffffff1673ffffffffffffffffffffffffffffffffffffffff168152602001908152602001600020600083815260200190815260200160002060006101000a81548160ff02191690836002811115612e5957612e58613e98565b5b02179055506000600760003373ffffffffffffffffffffffffffffffffffffffff1673ffffffffffffffffffffffffffffffffffffffff16815260200190815260200160002060008473ffffffffffffffffffffffffffffffffffffffff1673ffffffffffffffffffffffffffffffffffffffff16815260200190815260200160002060006101000a81548160ff0219169083151502179055506000600660008573ffffffffffffffffffffffffffffffffffffffff1673ffffffffffffffffffffffffffffffffffffffff16815260200190815260200160002060006101000a81548160ff021916908315150217905550600160009054906101000a900473ffffffffffffffffffffffffffffffffffffffff1673ffffffffffffffffffffffffffffffffffffffff166371c0b8ed83336040518363ffffffff1660e01b8152600401612fa8929190613f90565b600060405180830381600087803b158015612fc257600080fd5b505af1158015612fd6573d6000803e3d6000fd5b50505050600160009054906101000a900473ffffffffffffffffffffffffffffffffffffffff1673ffffffffffffffffffffffffffffffffffffffff1663e45de78483336040518363ffffffff1660e01b8152600401613037929190613f90565b600060405180830381600087803b15801561305157600080fd5b505af1158015613065573d6000803e3d6000fd5b505050507f777a1acc4d02aa051b30fab2297c36bca9ab9e3690cd647c67f7a44403fa422c8233858460405161309e9493929190613e53565b60405180910390a1505050565b60008054906101000a900473ffffffffffffffffffffffffffffffffffffffff1681565b606481565b6000819050919050565b6130e7816130d4565b82525050565b600060208201905061310260008301846130de565b92915050565b6000604051905090565b600080fd5b600080fd5b613125816130d4565b811461313057600080fd5b50565b6000813590506131428161311c565b92915050565b60006020828403121561315e5761315d613112565b5b600061316c84828501613133565b91505092915050565b600073ffffffffffffffffffffffffffffffffffffffff82169050919050565b60006131a082613175565b9050919050565b6131b081613195565b81146131bb57600080fd5b50565b6000813590506131cd816131a7565b92915050565b6000602082840312156131e9576131e8613112565b5b60006131f7848285016131be565b91505092915050565b6000819050919050565b600061322561322061321b84613175565b613200565b613175565b9050919050565b60006132378261320a565b9050919050565b60006132498261322c565b9050919050565b6132598161323e565b82525050565b60006020820190506132746000830184613250565b92915050565b6000806040838503121561329157613290613112565b5b600061329f858286016131be565b92505060206132b085828601613133565b9150509250929050565b6132c381613195565b82525050565b60006020820190506132de60008301846132ba565b92915050565b600081519050919050565b600082825260208201905092915050565b6000819050602082019050919050565b61331981613195565b82525050565b600061332b8383613310565b60208301905092915050565b6000602082019050919050565b600061334f826132e4565b61335981856132ef565b935061336483613300565b8060005b8381101561339557815161337c888261331f565b975061338783613337565b925050600181019050613368565b5085935050505092915050565b600060208201905081810360008301526133bc8184613344565b905092915050565b600080604083850312156133db576133da613112565b5b60006133e9858286016131be565b92505060206133fa858286016131be565b9150509250929050565b600080fd5b600080fd5b6000601f19601f8301169050919050565b7f4e487b7100000000000000000000000000000000000000000000000000000000600052604160045260246000fd5b6134578261340e565b810181811067ffffffffffffffff821117156134765761347561341f565b5b80604052505050565b6000613489613108565b9050613495828261344e565b919050565b600067ffffffffffffffff8211156134b5576134b461341f565b5b6134be8261340e565b9050602081019050919050565b82818337600083830152505050565b60006134ed6134e88461349a565b61347f565b90508281526020810184848401111561350957613508613409565b5b6135148482856134cb565b509392505050565b600082601f83011261353157613530613404565b5b81356135418482602086016134da565b91505092915050565b6000806040838503121561356157613560613112565b5b600083013567ffffffffffffffff81111561357f5761357e613117565b5b61358b8582860161351c565b925050602061359c85828601613133565b9150509250929050565b60006135b18261322c565b9050919050565b6135c1816135a6565b82525050565b60006020820190506135dc60008301846135b8565b92915050565b6000806000606084860312156135fb576135fa613112565b5b6000613609868287016131be565b935050602061361a868287016131be565b925050604061362b86828701613133565b9150509250925092565b60008115159050919050565b61364a81613635565b82525050565b60006020820190506136656000830184613641565b92915050565b6000806040838503121561368257613681613112565b5b600061369085828601613133565b92505060206136a1858286016131be565b9150509250929050565b60006136b68261322c565b9050919050565b6136c6816136ab565b82525050565b60006020820190506136e160008301846136bd565b92915050565b600082825260208201905092915050565b7f596f75206e65656420746f2073656e6420736f6d652065746865720000000000600082015250565b600061372e601b836136e7565b9150613739826136f8565b602082019050919050565b6000602082019050818103600083015261375d81613721565b9050919050565b7f4e487b7100000000000000000000000000000000000000000000000000000000600052601260045260246000fd5b600061379e826130d4565b91506137a9836130d4565b9250826137b9576137b8613764565b5b828206905092915050565b7f4e6f204469766973696f6e210000000000000000000000000000000000000000600082015250565b60006137fa600c836136e7565b9150613805826137c4565b602082019050919050565b60006020820190508181036000830152613829816137ed565b9050919050565b600060408201905061384560008301856132ba565b61385260208301846130de565b9392505050565b61386281613635565b811461386d57600080fd5b50565b60008151905061387f81613859565b92915050565b60006020828403121561389b5761389a613112565b5b60006138a984828501613870565b91505092915050565b7f4e487b7100000000000000000000000000000000000000000000000000000000600052601160045260246000fd5b60006138ec826130d4565b91506138f7836130d4565b9250817fffffffffffffffffffffffffffffffffffffffffffffffffffffffffffffffff04831182151516156139305761392f6138b2565b5b828202905092915050565b6000613946826130d4565b9150613951836130d4565b92508261396157613960613764565b5b828204905092915050565b60008151905061397b8161311c565b92915050565b60006020828403121561399757613996613112565b5b60006139a58482850161396c565b91505092915050565b7f6163636573732064656e69656421000000000000000000000000000000000000600082015250565b60006139e4600e836136e7565b91506139ef826139ae565b602082019050919050565b60006020820190508181036000830152613a13816139d7565b9050919050565b7f4e487b7100000000000000000000000000000000000000000000000000000000600052603260045260246000fd5b6000613a54826130d4565b9150613a5f836130d4565b925082821015613a7257613a716138b2565b5b828203905092915050565b7f4e487b7100000000000000000000000000000000000000000000000000000000600052603160045260246000fd5b6000613ab7826130d4565b91507fffffffffffffffffffffffffffffffffffffffffffffffffffffffffffffffff8203613ae957613ae86138b2565b5b600182019050919050565b7f596f7520646f6e2774206861766520656e6f75676820746f6b656e2100000000600082015250565b6000613b2a601c836136e7565b9150613b3582613af4565b602082019050919050565b60006020820190508181036000830152613b5981613b1d565b9050919050565b600081519050919050565b60005b83811015613b89578082015181840152602081019050613b6e565b83811115613b98576000848401525b50505050565b6000613ba982613b60565b613bb381856136e7565b9350613bc3818560208601613b6b565b613bcc8161340e565b840191505092915050565b6000606082019050613bec60008301866132ba565b8181036020830152613bfe8185613b9e565b9050613c0d60408301846130de565b949350505050565b600081519050613c24816131a7565b92915050565b600060208284031215613c4057613c3f613112565b5b6000613c4e84828501613c15565b91505092915050565b7f596f7520646f6e2774206f776e20746869732070657421000000000000000000600082015250565b6000613c8d6017836136e7565b9150613c9882613c57565b602082019050919050565b60006020820190508181036000830152613cbc81613c80565b9050919050565b7f596f7520616c7265616479206861766520616e2061637469766520747261646560008201527f2077697468207573657221000000000000000000000000000000000000000000602082015250565b6000613d1f602b836136e7565b9150613d2a82613cc3565b604082019050919050565b60006020820190508181036000830152613d4e81613d12565b9050919050565b7f596f7520616c7265616479206861766520616e2061637469766520747261646560008201527f2072657175657374207769746820706574210000000000000000000000000000602082015250565b6000613db16032836136e7565b9150613dbc82613d55565b604082019050919050565b60006020820190508181036000830152613de081613da4565b9050919050565b7f446f6e2774207472616465206465616420706574732100000000000000000000600082015250565b6000613e1d6016836136e7565b9150613e2882613de7565b602082019050919050565b60006020820190508181036000830152613e4c81613e10565b9050919050565b6000608082019050613e6860008301876132ba565b613e7560208301866132ba565b613e8260408301856132ba565b613e8f60608301846130de565b95945050505050565b7f4e487b7100000000000000000000000000000000000000000000000000000000600052602160045260246000fd5b7f547261646520646f65736e2774206578697374206f7220696e2077726f6e672060008201527f7374617465210000000000000000000000000000000000000000000000000000602082015250565b6000613f236026836136e7565b9150613f2e82613ec7565b604082019050919050565b60006020820190508181036000830152613f5281613f16565b9050919050565b6000606082019050613f6e60008301866132ba565b613f7b60208301856132ba565b613f8860408301846130de565b949350505050565b6000604082019050613fa560008301856132ba565b613fb260208301846132ba565b9392505050565b7f4f776e657220616c726561647920736574210000000000000000000000000000600082015250565b6000613fef6012836136e7565b9150613ffa82613fb9565b602082019050919050565b6000602082019050818103600083015261401e81613fe2565b9050919050565b7f596f7520646f6e277420686176652061636365737320746f206275726e20746f60008201527f6b656e73206f6620757365722100000000000000000000000000000000000000602082015250565b6000614081602d836136e7565b915061408c82614025565b604082019050919050565b600060208201905081810360008301526140b081614074565b9050919050565b7f4e6f2061637469766520747261646520666f756e642100000000000000000000600082015250565b60006140ed6016836136e7565b91506140f8826140b7565b602082019050919050565b6000602082019050818103600083015261411c816140e0565b905091905056fea26469706673582212200000cbaa17f8a0f00b0140e1b36c00b316ba531cfe814a1993caa9ec11d5cc8b64736f6c634300080f0033608060405234801561001057600080fd5b50336000806101000a81548173ffffffffffffffffffffffffffffffffffffffff021916908373ffffffffffffffffffffffffffffffffffffffff1602179055506114f3806100606000396000f3fe608060405234801561001057600080fd5b506004361061007d5760003560e01c80634f18f54b1161005b5780634f18f54b146100ee57806371c0b8ed14610120578063d84a1d531461013c578063e45de784146101585761007d565b8063276fe7121461008257806334588bc5146100b45780634e6e35d2146100d2575b600080fd5b61009c600480360381019061009791906110ca565b610174565b6040516100ab93929190611128565b60405180910390f35b6100bc6101fb565b6040516100c9919061126e565b60405180910390f35b6100ec60048036038101906100e79190611290565b61034d565b005b610108600480360381019061010391906110ca565b61052a565b60405161011793929190611128565b60405180910390f35b61013a600480360381019061013591906112f7565b6105b1565b005b61015660048036038101906101519190611290565b610a02565b005b610172600480360381019061016d91906112f7565b610bdf565b005b6002602052816000526040600020818154811061019057600080fd5b9060005260206000209060030201600091509150508060000160009054906101000a900473ffffffffffffffffffffffffffffffffffffffff16908060010160009054906101000a900473ffffffffffffffffffffffffffffffffffffffff16908060020154905083565b6060600260003373ffffffffffffffffffffffffffffffffffffffff1673ffffffffffffffffffffffffffffffffffffffff168152602001908152602001600020805480602002602001604051908101604052809291908181526020016000905b8282101561034457838290600052602060002090600302016040518060600160405290816000820160009054906101000a900473ffffffffffffffffffffffffffffffffffffffff1673ffffffffffffffffffffffffffffffffffffffff1673ffffffffffffffffffffffffffffffffffffffff1681526020016001820160009054906101000a900473ffffffffffffffffffffffffffffffffffffffff1673ffffffffffffffffffffffffffffffffffffffff1673ffffffffffffffffffffffffffffffffffffffff1681526020016002820154815250508152602001906001019061025c565b50505050905090565b3373ffffffffffffffffffffffffffffffffffffffff1660008054906101000a900473ffffffffffffffffffffffffffffffffffffffff1673ffffffffffffffffffffffffffffffffffffffff16146103db576040517f08c379a00000000000000000000000000000000000000000000000000000000081526004016103d290611394565b60405180910390fd5b600260008573ffffffffffffffffffffffffffffffffffffffff1673ffffffffffffffffffffffffffffffffffffffff16815260200190815260200160002060405180606001604052808573ffffffffffffffffffffffffffffffffffffffff1681526020018473ffffffffffffffffffffffffffffffffffffffff16815260200183815250908060018154018082558091505060019003906000526020600020906003020160009091909190915060008201518160000160006101000a81548173ffffffffffffffffffffffffffffffffffffffff021916908373ffffffffffffffffffffffffffffffffffffffff16021790555060208201518160010160006101000a81548173ffffffffffffffffffffffffffffffffffffffff021916908373ffffffffffffffffffffffffffffffffffffffff16021790555060408201518160020155505050505050565b6001602052816000526040600020818154811061054657600080fd5b9060005260206000209060030201600091509150508060000160009054906101000a900473ffffffffffffffffffffffffffffffffffffffff16908060010160009054906101000a900473ffffffffffffffffffffffffffffffffffffffff16908060020154905083565b3373ffffffffffffffffffffffffffffffffffffffff1660008054906101000a900473ffffffffffffffffffffffffffffffffffffffff1673ffffffffffffffffffffffffffffffffffffffff161461063f576040517f08c379a000000000000000000000000000000000000000000000000000000000815260040161063690611394565b60405180910390fd5b60005b600160008473ffffffffffffffffffffffffffffffffffffffff1673ffffffffffffffffffffffffffffffffffffffff168152602001908152602001600020805490508110156109fd578173ffffffffffffffffffffffffffffffffffffffff16600160008573ffffffffffffffffffffffffffffffffffffffff1673ffffffffffffffffffffffffffffffffffffffff16815260200190815260200160002082815481106106f4576106f36113b4565b5b906000526020600020906003020160000160009054906101000a900473ffffffffffffffffffffffffffffffffffffffff1673ffffffffffffffffffffffffffffffffffffffff16036109ea57600160008473ffffffffffffffffffffffffffffffffffffffff1673ffffffffffffffffffffffffffffffffffffffff16815260200190815260200160002060018060008673ffffffffffffffffffffffffffffffffffffffff1673ffffffffffffffffffffffffffffffffffffffff168152602001908152602001600020805490506107ce9190611412565b815481106107df576107de6113b4565b5b9060005260206000209060030201600160008573ffffffffffffffffffffffffffffffffffffffff1673ffffffffffffffffffffffffffffffffffffffff168152602001908152602001600020828154811061083e5761083d6113b4565b5b90600052602060002090600302016000820160009054906101000a900473ffffffffffffffffffffffffffffffffffffffff168160000160006101000a81548173ffffffffffffffffffffffffffffffffffffffff021916908373ffffffffffffffffffffffffffffffffffffffff1602179055506001820160009054906101000a900473ffffffffffffffffffffffffffffffffffffffff168160010160006101000a81548173ffffffffffffffffffffffffffffffffffffffff021916908373ffffffffffffffffffffffffffffffffffffffff16021790555060028201548160020155905050600160008473ffffffffffffffffffffffffffffffffffffffff1673ffffffffffffffffffffffffffffffffffffffff16815260200190815260200160002080548061097657610975611446565b5b6001900381819060005260206000209060030201600080820160006101000a81549073ffffffffffffffffffffffffffffffffffffffff02191690556001820160006101000a81549073ffffffffffffffffffffffffffffffffffffffff02191690556002820160009055505090556109fd565b80806109f590611475565b915050610642565b505050565b3373ffffffffffffffffffffffffffffffffffffffff1660008054906101000a900473ffffffffffffffffffffffffffffffffffffffff1673ffffffffffffffffffffffffffffffffffffffff1614610a90576040517f08c379a0000000000000000000000000000000000000000000000000000000008152600401610a8790611394565b60405180910390fd5b600160008573ffffffffffffffffffffffffffffffffffffffff1673ffffffffffffffffffffffffffffffffffffffff16815260200190815260200160002060405180606001604052808573ffffffffffffffffffffffffffffffffffffffff1681526020018473ffffffffffffffffffffffffffffffffffffffff16815260200183815250908060018154018082558091505060019003906000526020600020906003020160009091909190915060008201518160000160006101000a81548173ffffffffffffffffffffffffffffffffffffffff021916908373ffffffffffffffffffffffffffffffffffffffff16021790555060208201518160010160006101000a81548173ffffffffffffffffffffffffffffffffffffffff021916908373ffffffffffffffffffffffffffffffffffffffff16021790555060408201518160020155505050505050565b3373ffffffffffffffffffffffffffffffffffffffff1660008054906101000a900473ffffffffffffffffffffffffffffffffffffffff1673ffffffffffffffffffffffffffffffffffffffff1614610c6d576040517f08c379a0000000000000000000000000000000000000000000000000000000008152600401610c6490611394565b60405180910390fd5b60005b600260008373ffffffffffffffffffffffffffffffffffffffff1673ffffffffffffffffffffffffffffffffffffffff1681526020019081526020016000208054905081101561102c578273ffffffffffffffffffffffffffffffffffffffff16600260008473ffffffffffffffffffffffffffffffffffffffff1673ffffffffffffffffffffffffffffffffffffffff1681526020019081526020016000208281548110610d2257610d216113b4565b5b906000526020600020906003020160000160009054906101000a900473ffffffffffffffffffffffffffffffffffffffff1673ffffffffffffffffffffffffffffffffffffffff160361101957600260008373ffffffffffffffffffffffffffffffffffffffff1673ffffffffffffffffffffffffffffffffffffffff1681526020019081526020016000206001600260008573ffffffffffffffffffffffffffffffffffffffff1673ffffffffffffffffffffffffffffffffffffffff16815260200190815260200160002080549050610dfd9190611412565b81548110610e0e57610e0d6113b4565b5b9060005260206000209060030201600260008473ffffffffffffffffffffffffffffffffffffffff1673ffffffffffffffffffffffffffffffffffffffff1681526020019081526020016000208281548110610e6d57610e6c6113b4565b5b90600052602060002090600302016000820160009054906101000a900473ffffffffffffffffffffffffffffffffffffffff168160000160006101000a81548173ffffffffffffffffffffffffffffffffffffffff021916908373ffffffffffffffffffffffffffffffffffffffff1602179055506001820160009054906101000a900473ffffffffffffffffffffffffffffffffffffffff168160010160006101000a81548173ffffffffffffffffffffffffffffffffffffffff021916908373ffffffffffffffffffffffffffffffffffffffff16021790555060028201548160020155905050600260008373ffffffffffffffffffffffffffffffffffffffff1673ffffffffffffffffffffffffffffffffffffffff168152602001908152602001600020805480610fa557610fa4611446565b5b6001900381819060005260206000209060030201600080820160006101000a81549073ffffffffffffffffffffffffffffffffffffffff02191690556001820160006101000a81549073ffffffffffffffffffffffffffffffffffffffff021916905560028201600090555050905561102c565b808061102490611475565b915050610c70565b505050565b600080fd5b600073ffffffffffffffffffffffffffffffffffffffff82169050919050565b600061106182611036565b9050919050565b61107181611056565b811461107c57600080fd5b50565b60008135905061108e81611068565b92915050565b6000819050919050565b6110a781611094565b81146110b257600080fd5b50565b6000813590506110c48161109e565b92915050565b600080604083850312156110e1576110e0611031565b5b60006110ef8582860161107f565b9250506020611100858286016110b5565b9150509250929050565b61111381611056565b82525050565b61112281611094565b82525050565b600060608201905061113d600083018661110a565b61114a602083018561110a565b6111576040830184611119565b949350505050565b600081519050919050565b600082825260208201905092915050565b6000819050602082019050919050565b61119481611056565b82525050565b6111a381611094565b82525050565b6060820160008201516111bf600085018261118b565b5060208201516111d2602085018261118b565b5060408201516111e5604085018261119a565b50505050565b60006111f783836111a9565b60608301905092915050565b6000602082019050919050565b600061121b8261115f565b611225818561116a565b93506112308361117b565b8060005b8381101561126157815161124888826111eb565b975061125383611203565b925050600181019050611234565b5085935050505092915050565b600060208201905081810360008301526112888184611210565b905092915050565b600080600080608085870312156112aa576112a9611031565b5b60006112b88782880161107f565b94505060206112c98782880161107f565b93505060406112da8782880161107f565b92505060606112eb878288016110b5565b91505092959194509250565b6000806040838503121561130e5761130d611031565b5b600061131c8582860161107f565b925050602061132d8582860161107f565b9150509250929050565b600082825260208201905092915050565b7f7065726d697373696f6e2064656e696564210000000000000000000000000000600082015250565b600061137e601283611337565b915061138982611348565b602082019050919050565b600060208201905081810360008301526113ad81611371565b9050919050565b7f4e487b7100000000000000000000000000000000000000000000000000000000600052603260045260246000fd5b7f4e487b7100000000000000000000000000000000000000000000000000000000600052601160045260246000fd5b600061141d82611094565b915061142883611094565b92508282101561143b5761143a6113e3565b5b828203905092915050565b7f4e487b7100000000000000000000000000000000000000000000000000000000600052603160045260246000fd5b600061148082611094565b91507fffffffffffffffffffffffffffffffffffffffffffffffffffffffffffffffff82036114b2576114b16113e3565b5b60018201905091905056fea2646970667358221220ecf4fe4232f5a792d2f6ffaf0e3897eae9ce9e73f98278298c33cc5a73ec5f0464736f6c634300080f0033",
  "immutableReferences": {},
  "source": "// SPDX-License-Identifier: MIT\npragma solidity ^0.8.0; //safe math not needed\n\nimport \"./IERC20.sol\";\nimport \"./PetToken.sol\";\nimport \"./VirtualPet.sol\";\nimport \"./PetFactory.sol\";\nimport \"./Trades.sol\";\n\ncontract ATM {\n\t\n    IERC20 public token;\n    Trades public trades;\n    PetFactory public petFactory;\n\n    address private owner;\n\n    //100 token = 1 ether\n    uint public constant TOKEN_PRICE_BUY = 100;\n    uint public constant TOKEN_PRICE_SELL = 100;\n    //1/10 ether minimum\n    uint public constant TOKEN_DECIMAL = 10;\n    uint public constant ETHER = 1000000000000000000;\n    uint public constant BASIC_PET_PRICE = 10;\n\n    enum TradeState{NONE, REQUEST, DONE}\n\n    struct Trade { \n        address tradePartner;\n        address pet;\n        uint price;\n    }\n    //USER - PET ARRAY\n    mapping(address => address[]) public pets;\n    mapping(address => mapping (address => bool)) private petOfUser;\n    //PET - Bool\n    mapping(address => bool) private petTradeLock;\n\n    //TO - FROM (Buyer - Seller) to avoid multiple offers\n    mapping(address =>  mapping(address => bool)) private activeTrade;\n    \n    mapping(address => mapping (address => mapping (address => mapping (uint => TradeState)))) private petTrade;\n\n    event Bought(uint256 amount);\n    event PetCreated(address user);\n    event Sold(uint256 amount);\n    event Burned(uint256 amount);\n    event TradeRequest(address from, address to, address pet, uint value);\n    event TradeFinished(address from, address to);\n    event TradeDeclined(address from, address to, address pet, uint value);\n\n    constructor(address _token, address _petFactory) {\n        trades = new Trades();\n        token = PetToken(_token);\n        token.setTokenOwner();\n        petFactory = PetFactory(_petFactory);\n        petFactory.setPetFactoryOwner();\n    }\n\n    function setATMOwner(address test) public {\n        require(owner == address(0), \"Owner already set!\");\n\t    owner = test;\n    }\n\n    function getOwner () external view returns(address) {\n        return(owner);\n    }\n\n    function getTradeContract () external view returns(address) {\n        return(address(trades));\n    }\n\n    function buyToken() payable public {\n        uint256 amountToBuy = msg.value;\n        //can spend 1/10 ether\n        require(amountToBuy % (ETHER/TOKEN_DECIMAL) == 0, \"No Division!\");\n\t    require(amountToBuy > 0, \"You need to send some ether\");\n\t    token.mintToken(msg.sender, TOKEN_PRICE_BUY*amountToBuy/ETHER);\n\t    emit Bought(TOKEN_PRICE_BUY*amountToBuy/ETHER);\n    }\n\n    function sellToken (uint256 amount) public {\n        require(amount > 0, \"You need to send some ether\");\n        require(amount % TOKEN_DECIMAL == 0, \"No Division!\");\n\t    token.burnToken(msg.sender, amount);\n\t    payable(msg.sender).transfer(amount*ETHER/TOKEN_PRICE_SELL);\n\t    emit Sold(amount/TOKEN_PRICE_SELL*ETHER);\n    }\n\n    function burnToken (uint256 amount, address user) public {\n        require(amount > 0, \"You need to send some ether\");\n        require((amount/TOKEN_PRICE_SELL*ETHER) % (ETHER/TOKEN_DECIMAL) == 0, \"No Division!\");\n\n        //called from ATM or pet owner\n        if(msg.sender == address(this) || petOfUser[user][msg.sender] == true){\n            token.burnToken(user, amount);\n            emit Burned(amount);\n        }\n        else{\n            revert(\"You don't have access to burn tokens of user!\");\n        }\n    }\n\n    function getTokenAmount () external view returns(uint256) {\n        return(token.balanceOf(msg.sender));\n    }\n\n    function buyPet(string memory _petName, uint _race) external {\n        require(token.balanceOf(msg.sender) >= BASIC_PET_PRICE, \"You don't have enough token!\");\n        token.burnToken(msg.sender, BASIC_PET_PRICE);\n        address petAddress;\n        petAddress = petFactory.createPet(msg.sender, string(_petName), _race);\n        pets[msg.sender].push(petAddress);\n        petOfUser[msg.sender][petAddress] = true;\n    }\n\n    function updatePet(address _pet) external {\n        VirtualPet(_pet).update();\n    }\n\n    function getPetLevel(address  _pet) external view returns(uint) {\n        require(petOfUser[msg.sender][address(_pet)] == true);\n        return VirtualPet(_pet).petLevel();\n    }\n\n    function getAllPets() external view returns(address[] memory) {\n        return pets[msg.sender];\n    }\n\n    function removePet (address _pet) external {\n        require(petOfUser[msg.sender][address(_pet)] == true, \"You don't own this pet!\");\n        if(VirtualPet(_pet).getPetStatus() == false){\n            petOfUser[msg.sender][address(_pet)] = false;\n            this.deletePet(msg.sender, _pet);\n        }\n    }\n\n    function sellPet(address _pet, address _to, uint _value) external {\n        require(petOfUser[msg.sender][address(_pet)] == true, \"You don't own this pet!\");\n        require(activeTrade[_to][msg.sender] == false, \"You already have an active trade with user!\");\n        require(petTradeLock[_pet] == false, \"You already have an active trade request with pet!\");\n        VirtualPet(_pet).update();\n        if(VirtualPet(_pet).getPetStatus() == false){\n            revert(\"Don't trade dead pets!\");\n        }\n        activeTrade[_to][msg.sender] = true;\n        petTradeLock[_pet] = true;\n        trades.pushNewSellerTrade(msg.sender, _to, _pet, _value);\n        trades.pushNewBuyerTrade(_to, msg.sender, _pet, _value);\n\n        petTrade[msg.sender][_to][_pet][_value] = TradeState.REQUEST;\n        emit TradeRequest(msg.sender, _to, _pet, _value);\n    }\n\n    function acceptPetTrade (address _pet, address _seller, uint _value) external returns(bool) {\n        require(token.balanceOf(msg.sender) >= _value, \"You don't have enough token!\");\n        require(petTrade[_seller][msg.sender][_pet][_value] == TradeState.REQUEST, \"Trade doesn't exist or in wrong state!\");\n        VirtualPet(_pet).update();\n        if(VirtualPet(_pet).getPetStatus() == false){\n            revert(\"Don't trade dead pets!\");\n        }\n        token.transferFrom(msg.sender, _seller, _value);\n        petTrade[_seller][msg.sender][_pet][_value] = TradeState.DONE;\n        activeTrade[msg.sender][_seller] = false;\n        petTradeLock[_pet] = false;\n\n        address newOwner = VirtualPet(_pet).changeOwner(msg.sender);\n\n        this.deletePet(_seller, _pet);\n\n        trades.deleteSellerTrade(_seller, msg.sender);\n\n        trades.deleteBuyerTrade(_seller, msg.sender);\n\n        //set new pet owner\n        petOfUser[_seller][_pet] = false;\n        pets[msg.sender].push(_pet);\n        petOfUser[msg.sender][_pet] = true;\n        if(newOwner == msg.sender){\n            emit TradeFinished(_seller, msg.sender);\n        }\n        return true;\n    }\n\n    function declinePetTrade (address _pet, address _seller, uint _value) external {\n        require(petTrade[_seller][msg.sender][_pet][_value] == TradeState.REQUEST, \"Trade doesn't exist or in wrong state!\");\n        require(activeTrade[msg.sender][_seller] == true, \"No active trade found!\");\n        petTrade[_seller][msg.sender][_pet][_value] = TradeState.DONE;\n        activeTrade[msg.sender][_seller] = false;\n        petTradeLock[_pet] = false;\n        \n        trades.deleteSellerTrade(_seller, msg.sender);\n\n        trades.deleteBuyerTrade(_seller, msg.sender);\n\n        emit TradeDeclined(_seller, msg.sender, _pet, _value);\n    }\n\n    function payout() external {\n        require(msg.sender == owner);\n        //require(_amount <= address(this).balance);\n        payable(owner).transfer(address(this).balance);\n    }\n\n    function deletePet(address _user, address _pet) external {\n        require(msg.sender == address(this), \"access denied!\");\n        for (uint i = 0; i < pets[_user].length; i++) {\n            if (pets[_user][i] == _pet) {\n                pets[_user][i] = pets[_user][pets[_user].length - 1];\n                pets[_user].pop();\n                break;\n            }\n        }\n    }\n}\n",
  "sourcePath": "/Users/georg/truffle/e01604873/contracts/ATM.sol",
  "compiler": {
    "name": "solc",
    "version": "0.8.15+commit.e14f2714.Emscripten.clang"
  },
  "schemaVersion": "3.4.6",
  "updatedAt": "2022-06-16T20:08:09.274Z",
  "devdoc": {
    "kind": "dev",
    "methods": {},
    "version": 1
  },
  "userdoc": {
    "kind": "user",
    "methods": {},
    "version": 1
  }
}