{
  "contractName": "PetRat",
  "abi": [
    {
      "inputs": [
        {
          "internalType": "address",
          "name": "_owner",
          "type": "address"
        },
        {
          "internalType": "string",
          "name": "_petName",
          "type": "string"
        },
        {
          "internalType": "address",
          "name": "_atm",
          "type": "address"
        }
      ],
      "stateMutability": "nonpayable",
      "type": "constructor"
    },
    {
      "anonymous": false,
      "inputs": [
        {
          "indexed": false,
          "internalType": "address",
          "name": "pet",
          "type": "address"
        }
      ],
      "name": "PetDied",
      "type": "event"
    },
    {
      "inputs": [],
      "name": "alive",
      "outputs": [
        {
          "internalType": "bool",
          "name": "",
          "type": "bool"
        }
      ],
      "stateMutability": "view",
      "type": "function"
    },
    {
      "inputs": [
        {
          "internalType": "address",
          "name": "_owner",
          "type": "address"
        }
      ],
      "name": "changeOwner",
      "outputs": [
        {
          "internalType": "address",
          "name": "newOwner",
          "type": "address"
        }
      ],
      "stateMutability": "nonpayable",
      "type": "function"
    },
    {
      "inputs": [],
      "name": "creationTime",
      "outputs": [
        {
          "internalType": "uint256",
          "name": "",
          "type": "uint256"
        }
      ],
      "stateMutability": "view",
      "type": "function"
    },
    {
      "inputs": [],
      "name": "getPetHealth",
      "outputs": [
        {
          "internalType": "uint256",
          "name": "health",
          "type": "uint256"
        }
      ],
      "stateMutability": "view",
      "type": "function"
    },
    {
      "inputs": [],
      "name": "getPetLevel",
      "outputs": [
        {
          "internalType": "uint256",
          "name": "level",
          "type": "uint256"
        }
      ],
      "stateMutability": "view",
      "type": "function"
    },
    {
      "inputs": [],
      "name": "getPetOwner",
      "outputs": [
        {
          "internalType": "address",
          "name": "",
          "type": "address"
        }
      ],
      "stateMutability": "view",
      "type": "function"
    },
    {
      "inputs": [],
      "name": "getPetRace",
      "outputs": [
        {
          "internalType": "enum VirtualPet.PetRace",
          "name": "",
          "type": "uint8"
        }
      ],
      "stateMutability": "view",
      "type": "function"
    },
    {
      "inputs": [],
      "name": "getPetStatus",
      "outputs": [
        {
          "internalType": "bool",
          "name": "",
          "type": "bool"
        }
      ],
      "stateMutability": "view",
      "type": "function"
    },
    {
      "inputs": [],
      "name": "lastModTime",
      "outputs": [
        {
          "internalType": "uint256",
          "name": "",
          "type": "uint256"
        }
      ],
      "stateMutability": "view",
      "type": "function"
    },
    {
      "inputs": [],
      "name": "owner",
      "outputs": [
        {
          "internalType": "address",
          "name": "",
          "type": "address"
        }
      ],
      "stateMutability": "view",
      "type": "function"
    },
    {
      "inputs": [],
      "name": "petHealth",
      "outputs": [
        {
          "internalType": "uint256",
          "name": "",
          "type": "uint256"
        }
      ],
      "stateMutability": "view",
      "type": "function"
    },
    {
      "inputs": [],
      "name": "petLevel",
      "outputs": [
        {
          "internalType": "uint256",
          "name": "",
          "type": "uint256"
        }
      ],
      "stateMutability": "view",
      "type": "function"
    },
    {
      "inputs": [],
      "name": "petName",
      "outputs": [
        {
          "internalType": "string",
          "name": "",
          "type": "string"
        }
      ],
      "stateMutability": "view",
      "type": "function"
    },
    {
      "inputs": [],
      "name": "petRace",
      "outputs": [
        {
          "internalType": "enum VirtualPet.PetRace",
          "name": "",
          "type": "uint8"
        }
      ],
      "stateMutability": "view",
      "type": "function"
    },
    {
      "inputs": [],
      "name": "restPetHealth",
      "outputs": [
        {
          "internalType": "uint256",
          "name": "",
          "type": "uint256"
        }
      ],
      "stateMutability": "view",
      "type": "function"
    },
    {
      "inputs": [],
      "name": "restPetLevel",
      "outputs": [
        {
          "internalType": "uint256",
          "name": "",
          "type": "uint256"
        }
      ],
      "stateMutability": "view",
      "type": "function"
    },
    {
      "inputs": [],
      "name": "update",
      "outputs": [],
      "stateMutability": "nonpayable",
      "type": "function"
    },
    {
      "inputs": [],
      "name": "feed",
      "outputs": [],
      "stateMutability": "nonpayable",
      "type": "function"
    },
    {
      "inputs": [],
      "name": "damage",
      "outputs": [
        {
          "internalType": "bool",
          "name": "success",
          "type": "bool"
        }
      ],
      "stateMutability": "nonpayable",
      "type": "function"
    },
    {
      "inputs": [
        {
          "internalType": "uint256",
          "name": "number",
          "type": "uint256"
        }
      ],
      "name": "play",
      "outputs": [],
      "stateMutability": "nonpayable",
      "type": "function"
    }
  ],
  "bytecode": "0x60806040523480156200001157600080fd5b5060405162001bf238038062001bf283398181016040528101906200003791906200033c565b82600160006101000a81548173ffffffffffffffffffffffffffffffffffffffff021916908373ffffffffffffffffffffffffffffffffffffffff160217905550816002908162000089919062000602565b504260068190555042600581905550600160038190555060646004819055506001600760006101000a81548160ff021916908315150217905550806000806101000a81548173ffffffffffffffffffffffffffffffffffffffff021916908373ffffffffffffffffffffffffffffffffffffffff1602179055506001600a60006101000a81548160ff021916908360038111156200012c576200012b620006e9565b5b021790555050505062000718565b6000604051905090565b600080fd5b600080fd5b600073ffffffffffffffffffffffffffffffffffffffff82169050919050565b60006200017b826200014e565b9050919050565b6200018d816200016e565b81146200019957600080fd5b50565b600081519050620001ad8162000182565b92915050565b600080fd5b600080fd5b6000601f19601f8301169050919050565b7f4e487b7100000000000000000000000000000000000000000000000000000000600052604160045260246000fd5b6200020882620001bd565b810181811067ffffffffffffffff821117156200022a5762000229620001ce565b5b80604052505050565b60006200023f6200013a565b90506200024d8282620001fd565b919050565b600067ffffffffffffffff82111562000270576200026f620001ce565b5b6200027b82620001bd565b9050602081019050919050565b60005b83811015620002a85780820151818401526020810190506200028b565b83811115620002b8576000848401525b50505050565b6000620002d5620002cf8462000252565b62000233565b905082815260208101848484011115620002f457620002f3620001b8565b5b6200030184828562000288565b509392505050565b600082601f830112620003215762000320620001b3565b5b815162000333848260208601620002be565b91505092915050565b60008060006060848603121562000358576200035762000144565b5b600062000368868287016200019c565b935050602084015167ffffffffffffffff8111156200038c576200038b62000149565b5b6200039a8682870162000309565b9250506040620003ad868287016200019c565b9150509250925092565b600081519050919050565b7f4e487b7100000000000000000000000000000000000000000000000000000000600052602260045260246000fd5b600060028204905060018216806200040a57607f821691505b60208210810362000420576200041f620003c2565b5b50919050565b60008190508160005260206000209050919050565b60006020601f8301049050919050565b600082821b905092915050565b6000600883026200048a7fffffffffffffffffffffffffffffffffffffffffffffffffffffffffffffffff826200044b565b6200049686836200044b565b95508019841693508086168417925050509392505050565b6000819050919050565b6000819050919050565b6000620004e3620004dd620004d784620004ae565b620004b8565b620004ae565b9050919050565b6000819050919050565b620004ff83620004c2565b620005176200050e82620004ea565b84845462000458565b825550505050565b600090565b6200052e6200051f565b6200053b818484620004f4565b505050565b5b8181101562000563576200055760008262000524565b60018101905062000541565b5050565b601f821115620005b2576200057c8162000426565b62000587846200043b565b8101602085101562000597578190505b620005af620005a6856200043b565b83018262000540565b50505b505050565b600082821c905092915050565b6000620005d760001984600802620005b7565b1980831691505092915050565b6000620005f28383620005c4565b9150826002028217905092915050565b6200060d82620003b7565b67ffffffffffffffff811115620006295762000628620001ce565b5b620006358254620003f1565b6200064282828562000567565b600060209050601f8311600181146200067a576000841562000665578287015190505b620006718582620005e4565b865550620006e1565b601f1984166200068a8662000426565b60005b82811015620006b4578489015182556001820191506020850194506020810190506200068d565b86831015620006d45784890151620006d0601f891682620005c4565b8355505b6001600288020188555050505b505050505050565b7f4e487b7100000000000000000000000000000000000000000000000000000000600052602160045260246000fd5b6114ca80620007286000396000f3fe608060405234801561001057600080fd5b506004361061012c5760003560e01c806389325c2c116100ad578063a2e6204511610071578063a2e62045146102dd578063a6f9dae1146102e7578063cc30451514610317578063d8270dce14610335578063ebebe63b146103535761012c565b806389325c2c146102475780638b78192f146102655780638da5cb5b146102835780638fb25766146102a1578063a1580f1a146102bf5761012c565b80635e2c3c48116100f45780635e2c3c48146101b35780636898f82b146101d1578063753899e9146101ed57806383205eed1461020b57806383b27c65146102295761012c565b806326e81fb9146101315780632f8245a81461014f57806337a7b7d81461016d5780634b2c979c146101775780634dcbf37314610195575b600080fd5b610139610371565b6040516101469190610dce565b60405180910390f35b610157610388565b6040516101649190610e02565b60405180910390f35b61017561038e565b005b61017f6105a4565b60405161018c9190610eb6565b60405180910390f35b61019d610632565b6040516101aa9190610e02565b60405180910390f35b6101bb610638565b6040516101c89190610e02565b60405180910390f35b6101eb60048036038101906101e69190610f09565b610642565b005b6101f5610801565b6040516102029190610dce565b60405180910390f35b610213610814565b6040516102209190610fad565b60405180910390f35b610231610827565b60405161023e9190610e02565b60405180910390f35b61024f61082d565b60405161025c9190610fad565b60405180910390f35b61026d610844565b60405161027a9190611009565b60405180910390f35b61028b61086e565b6040516102989190611009565b60405180910390f35b6102a9610894565b6040516102b69190610e02565b60405180910390f35b6102c761089a565b6040516102d49190610dce565b60405180910390f35b6102e5610aa7565b005b61030160048036038101906102fc9190611050565b610ca1565b60405161030e9190611009565b60405180910390f35b61031f610d9d565b60405161032c9190610e02565b60405180910390f35b61033d610da7565b60405161034a9190610e02565b60405180910390f35b61035b610dad565b6040516103689190610e02565b60405180910390f35b6000600760009054906101000a900460ff16905090565b60095481565b338073ffffffffffffffffffffffffffffffffffffffff16600160009054906101000a900473ffffffffffffffffffffffffffffffffffffffff1673ffffffffffffffffffffffffffffffffffffffff161461041f576040517f08c379a0000000000000000000000000000000000000000000000000000000008152600401610416906110c9565b60405180910390fd5b60011515600760009054906101000a900460ff16151514610475576040517f08c379a000000000000000000000000000000000000000000000000000000000815260040161046c90611135565b60405180910390fd5b3073ffffffffffffffffffffffffffffffffffffffff1663a2e620456040518163ffffffff1660e01b8152600401600060405180830381600087803b1580156104bd57600080fd5b505af11580156104d1573d6000803e3d6000fd5b5050505060008054906101000a900473ffffffffffffffffffffffffffffffffffffffff1673ffffffffffffffffffffffffffffffffffffffff1663dc593ca56005336040518363ffffffff1660e01b8152600401610531929190611155565b600060405180830381600087803b15801561054b57600080fd5b505af115801561055f573d6000803e3d6000fd5b505050506064601460045461057491906111ad565b106105865760646004819055506105a1565b60146004600082825461059991906111ad565b925050819055505b50565b600280546105b190611232565b80601f01602080910402602001604051908101604052809291908181526020018280546105dd90611232565b801561062a5780601f106105ff5761010080835404028352916020019161062a565b820191906000526020600020905b81548152906001019060200180831161060d57829003601f168201915b505050505081565b60045481565b6000600354905090565b60008110158015610654575060648111155b61065d57600080fd5b600060028261066c9190611263565b42443360405160200161068193929190611326565b6040516020818303038152906040528051906020012060001c6106a49190611392565b90503073ffffffffffffffffffffffffffffffffffffffff1663a2e620456040518163ffffffff1660e01b8152600401600060405180830381600087803b1580156106ee57600080fd5b505af1158015610702573d6000803e3d6000fd5b50505050818110610764576064828261071b91906113c3565b60045461072891906111ad565b1061073a57606460048190555061075f565b818161074691906113c3565b6004600082825461075791906111ad565b925050819055505b6107fd565b808261077091906113c3565b600454116107d75760006004819055506000600760006101000a81548160ff0219169083151502179055507f5691c23761c54f62406d00fa0c93278f1bab9e0ab38abee5ce86d2c33743819c306040516107ca9190611009565b60405180910390a16107fc565b80826107e391906113c3565b600460008282546107f491906113c3565b925050819055505b5b5050565b600760009054906101000a900460ff1681565b600a60009054906101000a900460ff1681565b60065481565b6000600a60009054906101000a900460ff16905090565b6000600160009054906101000a900473ffffffffffffffffffffffffffffffffffffffff16905090565b600160009054906101000a900473ffffffffffffffffffffffffffffffffffffffff1681565b60035481565b6000338073ffffffffffffffffffffffffffffffffffffffff16600160009054906101000a900473ffffffffffffffffffffffffffffffffffffffff1673ffffffffffffffffffffffffffffffffffffffff161461092d576040517f08c379a0000000000000000000000000000000000000000000000000000000008152600401610924906110c9565b60405180910390fd5b3073ffffffffffffffffffffffffffffffffffffffff1663a2e620456040518163ffffffff1660e01b8152600401600060405180830381600087803b15801561097557600080fd5b505af1158015610989573d6000803e3d6000fd5b5050505060008054906101000a900473ffffffffffffffffffffffffffffffffffffffff1673ffffffffffffffffffffffffffffffffffffffff1663dc593ca56005336040518363ffffffff1660e01b81526004016109e9929190611155565b600060405180830381600087803b158015610a0357600080fd5b505af1158015610a17573d6000803e3d6000fd5b50505050601460045411610a845760006004819055506000600760006101000a81548160ff0219169083151502179055507f5691c23761c54f62406d00fa0c93278f1bab9e0ab38abee5ce86d2c33743819c30604051610a779190611009565b60405180910390a1610a9f565b601460046000828254610a9791906113c3565b925050819055505b600191505090565b600760009054906101000a900460ff1615610c96576000429050600060065482610ad191906113c3565b905081600681905550600a81610ae79190611392565b60096000828254610af891906111ad565b92505081905550600a6009541115610b4757600a600954610b1991906113f7565b60036000828254610b2a91906111ad565b92505081905550600a600954610b409190611392565b6009819055505b600a81610b5491906113f7565b60036000828254610b6591906111ad565b92505081905550603c81610b799190611392565b60086000828254610b8a91906111ad565b92505081905550603c600854118015610bb35750603c600854610bad91906113f7565b60045410155b15610bf557603c600854610bc791906113f7565b60046000828254610bd891906113c3565b92505081905550603c600854610bee9190611392565b6008819055505b603c81610c0291906113f7565b60045411610c695760006004819055506000600760006101000a81548160ff0219169083151502179055507f5691c23761c54f62406d00fa0c93278f1bab9e0ab38abee5ce86d2c33743819c30604051610c5c9190611009565b60405180910390a1610c8f565b603c81610c7691906113f7565b60046000828254610c8791906113c3565b925050819055505b5050610c9f565b60006004819055505b565b60008060009054906101000a900473ffffffffffffffffffffffffffffffffffffffff1673ffffffffffffffffffffffffffffffffffffffff163373ffffffffffffffffffffffffffffffffffffffff1614610d32576040517f08c379a0000000000000000000000000000000000000000000000000000000008152600401610d2990611474565b60405180910390fd5b81600160006101000a81548173ffffffffffffffffffffffffffffffffffffffff021916908373ffffffffffffffffffffffffffffffffffffffff160217905550600160009054906101000a900473ffffffffffffffffffffffffffffffffffffffff169050919050565b6000600454905090565b60055481565b60085481565b60008115159050919050565b610dc881610db3565b82525050565b6000602082019050610de36000830184610dbf565b92915050565b6000819050919050565b610dfc81610de9565b82525050565b6000602082019050610e176000830184610df3565b92915050565b600081519050919050565b600082825260208201905092915050565b60005b83811015610e57578082015181840152602081019050610e3c565b83811115610e66576000848401525b50505050565b6000601f19601f8301169050919050565b6000610e8882610e1d565b610e928185610e28565b9350610ea2818560208601610e39565b610eab81610e6c565b840191505092915050565b60006020820190508181036000830152610ed08184610e7d565b905092915050565b600080fd5b610ee681610de9565b8114610ef157600080fd5b50565b600081359050610f0381610edd565b92915050565b600060208284031215610f1f57610f1e610ed8565b5b6000610f2d84828501610ef4565b91505092915050565b7f4e487b7100000000000000000000000000000000000000000000000000000000600052602160045260246000fd5b60048110610f7657610f75610f36565b5b50565b6000819050610f8782610f65565b919050565b6000610f9782610f79565b9050919050565b610fa781610f8c565b82525050565b6000602082019050610fc26000830184610f9e565b92915050565b600073ffffffffffffffffffffffffffffffffffffffff82169050919050565b6000610ff382610fc8565b9050919050565b61100381610fe8565b82525050565b600060208201905061101e6000830184610ffa565b92915050565b61102d81610fe8565b811461103857600080fd5b50565b60008135905061104a81611024565b92915050565b60006020828403121561106657611065610ed8565b5b60006110748482850161103b565b91505092915050565b7f7065726d697373696f6e2064656e696564210000000000000000000000000000600082015250565b60006110b3601283610e28565b91506110be8261107d565b602082019050919050565b600060208201905081810360008301526110e2816110a6565b9050919050565b7f7065742069732064656164210000000000000000000000000000000000000000600082015250565b600061111f600c83610e28565b915061112a826110e9565b602082019050919050565b6000602082019050818103600083015261114e81611112565b9050919050565b600060408201905061116a6000830185610df3565b6111776020830184610ffa565b9392505050565b7f4e487b7100000000000000000000000000000000000000000000000000000000600052601160045260246000fd5b60006111b882610de9565b91506111c383610de9565b9250827fffffffffffffffffffffffffffffffffffffffffffffffffffffffffffffffff038211156111f8576111f761117e565b5b828201905092915050565b7f4e487b7100000000000000000000000000000000000000000000000000000000600052602260045260246000fd5b6000600282049050600182168061124a57607f821691505b60208210810361125d5761125c611203565b5b50919050565b600061126e82610de9565b915061127983610de9565b9250817fffffffffffffffffffffffffffffffffffffffffffffffffffffffffffffffff04831182151516156112b2576112b161117e565b5b828202905092915050565b6000819050919050565b6112d86112d382610de9565b6112bd565b82525050565b60008160601b9050919050565b60006112f6826112de565b9050919050565b6000611308826112eb565b9050919050565b61132061131b82610fe8565b6112fd565b82525050565b600061133282866112c7565b60208201915061134282856112c7565b602082019150611352828461130f565b601482019150819050949350505050565b7f4e487b7100000000000000000000000000000000000000000000000000000000600052601260045260246000fd5b600061139d82610de9565b91506113a883610de9565b9250826113b8576113b7611363565b5b828206905092915050565b60006113ce82610de9565b91506113d983610de9565b9250828210156113ec576113eb61117e565b5b828203905092915050565b600061140282610de9565b915061140d83610de9565b92508261141d5761141c611363565b5b828204905092915050565b7f4f6e6c792041544d2063616e206368616e676520706574206f776e6572210000600082015250565b600061145e601e83610e28565b915061146982611428565b602082019050919050565b6000602082019050818103600083015261148d81611451565b905091905056fea2646970667358221220d57798da4d4f184d9f12807ba8dbbd1c28a19fd76ad8cefb5f9b8ba6591bf5cd64736f6c634300080f0033",
  "immutableReferences": {},
  "source": "// SPDX-License-Identifier: MIT\npragma solidity ^0.8.0;\n\nimport \"./ATM.sol\";\n\nabstract contract VirtualPet {\n\n    address internal atmAddress;\n    address public owner;\n    string public petName;\n    uint256 public petLevel;\n    uint256 public petHealth;\n    uint256 public creationTime;\n    uint256 public lastModTime;\n    bool public alive;\n\n    uint256 public restPetHealth;\n    uint256 public restPetLevel;\n\n    //level up every 10 seconds\n    uint256 internal constant levelDownTime = 10;\n    //level up every 60 seconds\n    uint256 internal constant healthDownTime = 60;\n\n    //interactions costs & values\n    uint256 internal constant feedCost = 5;\n    uint256 internal constant feedHealth = 20;\n\n    uint256 internal constant damageCost = 5;\n    uint256 internal constant damageValue = 20;\n\n    enum PetRace{NONE,RAT, DOG, SHEEP}\n    PetRace public petRace;\n\n    event PetDied(address pet);\n\n    modifier isOwner(address _owner) {\n        require(owner == _owner, \"permission denied!\");\n        _;\n    }\n\n    modifier isAlive() {\n        require(alive == true, \"pet is dead!\");\n        _;\n    }\n\n    function changeOwner(address _owner) external returns (address newOwner){\n        require(msg.sender == atmAddress, \"Only ATM can change pet owner!\");\n        owner = _owner;\n        return owner;\n    }\n\n    function getPetLevel() external view returns(uint256 level) {\n        return petLevel;\n    }\n\n    function getPetHealth() external view returns(uint256 health) {\n        return petHealth;\n    }\n\n    function getPetOwner() external view returns(address) {\n        return owner;\n    }\n\n    function getPetStatus() external view returns(bool) {\n        return alive;\n    }\n\n    function getPetRace() external view returns(PetRace) {\n        return petRace;\n    }\n\n    function update() external virtual;\n\n    function feed() external virtual;\n\n    function damage() external virtual returns (bool success);\n\n    function play(uint number) external virtual;\n\n}\n\n\ncontract PetRat is VirtualPet {\n\n    constructor(address _owner, string memory _petName, address _atm) {\n        owner = _owner;\n        petName = string(_petName);\n        lastModTime = block.timestamp;\n        creationTime = block.timestamp;\n        petLevel = 1;\n        petHealth = 100;\n        alive = true;\n        atmAddress = _atm;\n        petRace = PetRace.RAT;\n    }\n\n\n    function update() external override {\n        if(alive){\n            uint stamp = block.timestamp;\n            uint deltaTime = stamp - lastModTime;\n            lastModTime = stamp;\n\n            //updating level\n            restPetLevel += (deltaTime % levelDownTime);\n            if(restPetLevel > levelDownTime){\n                petLevel += restPetLevel/levelDownTime;\n                restPetLevel = (restPetLevel % levelDownTime);\n            }\n            petLevel += (deltaTime/levelDownTime);\n\n            //updating health\n            //rest adding\n            restPetHealth += (deltaTime % healthDownTime);\n            if((restPetHealth > healthDownTime) && (petHealth >= restPetHealth/healthDownTime)){\n                petHealth -= restPetHealth/healthDownTime;\n                restPetHealth = (restPetHealth % healthDownTime);\n            }\n            //division adding\n            if(petHealth <= (deltaTime/healthDownTime)){\n                petHealth = 0;\n                alive = false;\n                emit PetDied(address(this));\n            }\n            else{\n                petHealth -= (deltaTime/healthDownTime);\n            }\n        }\n        else{\n            petHealth = 0;\n        }\n\t}\n\n    function feed() external override isOwner(msg.sender) isAlive {\n        this.update();\n        ATM(atmAddress).burnToken(feedCost, msg.sender);\n        if((petHealth + feedHealth) >= 100){\n            petHealth = 100;\n        }\n        else{\n            petHealth += feedHealth;\n        }\n    }\n\n    function damage() external override isOwner(msg.sender) returns (bool success) {\n        this.update();\n        ATM(atmAddress).burnToken(damageCost, msg.sender);\n        if(petHealth <= damageValue){\n            petHealth = 0;\n            alive = false;\n            emit PetDied(address(this));\n        }\n        else{\n            petHealth -= damageValue;\n        }\n        return true;\n    }\n\n    //pseudo random gamble health\n    function play(uint number) external override {\n        require(number>=0 && number <=100);\n        uint result = uint(keccak256(abi.encodePacked(block.timestamp,block.difficulty, msg.sender))) % (number*2);\n        this.update();\n        if(result >= number){\n            if((petHealth + (result-number)) >= 100){\n                petHealth = 100;\n            }\n            else{\n                petHealth += (result-number);\n            }\n        }\n        else{\n            if(petHealth <= (number-result)){\n                petHealth = 0;\n                alive = false;\n                emit PetDied(address(this));\n            }\n            else{\n                petHealth -= (number-result);\n            }\n        }\n    }\n}\n\n\n\ncontract PetDog is VirtualPet {\n\n    constructor(address _owner, string memory _petName, address _atm) {\n        owner = _owner;\n        petName = string(_petName);\n        lastModTime = block.timestamp;\n        creationTime = block.timestamp;\n        petLevel = 1;\n        petHealth = 100;\n        alive = true;\n        atmAddress = _atm;\n        petRace = PetRace.DOG;\n    }\n\n    function update() external override {\n        if(alive){\n            uint stamp = block.timestamp;\n            uint deltaTime = stamp - lastModTime;\n            lastModTime = stamp;\n\n            //updating level\n            restPetLevel += (deltaTime % levelDownTime);\n            if(restPetLevel > levelDownTime){\n                petLevel += restPetLevel/levelDownTime;\n                restPetLevel = (restPetLevel % levelDownTime);\n            }\n            petLevel += (deltaTime/levelDownTime);\n\n            //updating health\n            //rest adding\n            restPetHealth += (deltaTime % healthDownTime);\n            if((restPetHealth > healthDownTime) && (petHealth >= restPetHealth/healthDownTime)){\n                petHealth -= restPetHealth/healthDownTime;\n                restPetHealth = (restPetHealth % healthDownTime);\n            }\n            //division adding\n            if(petHealth <= (deltaTime/healthDownTime)){\n                petHealth = 0;\n                alive = false;\n                emit PetDied(address(this));\n            }\n            else{\n                petHealth -= (deltaTime/healthDownTime);\n            }\n        }\n        else{\n            petHealth = 0;\n        }\n\t}\n\n    function feed() external override isOwner(msg.sender) isAlive {\n        this.update();\n        ATM(atmAddress).burnToken(feedCost, msg.sender);\n        if((petHealth + feedHealth) >= 100){\n            petHealth = 100;\n        }\n        else{\n            petHealth += feedHealth;\n        }\n    }\n\n    //overflow - because using uint (unsigned) and proof if < 0 ... same problem with update error\n    function damage() external override isOwner(msg.sender) returns (bool success) {\n        this.update();\n        ATM(atmAddress).burnToken(damageCost, msg.sender);\n        if(petHealth <= damageValue){\n            petHealth = 0;\n            alive = false;\n            emit PetDied(address(this));\n        }\n        else{\n            petHealth -= damageValue;\n        }\n        return true;\n    }\n\n    function play(uint number) external override {\n        require(number>=0 && number <=100);\n        uint result = uint(keccak256(abi.encodePacked(block.timestamp,block.difficulty, msg.sender))) % (number*2);\n        this.update();\n        if(result >= number){\n            if((petHealth + (result-number)) >= 100){\n                petHealth = 100;\n            }\n            else{\n                petHealth += (result-number);\n            }\n        }\n        else{\n            if(petHealth <= (number-result)){\n                petHealth = 0;\n                alive = false;\n                emit PetDied(address(this));\n            }\n            else{\n                petHealth -= (number-result);\n            }\n        }\n    }\n}\n\n\ncontract PetSheep is VirtualPet {\n\n    constructor(address _owner, string memory _petName, address _atm) {\n        owner = _owner;\n        petName = string(_petName);\n        lastModTime = block.timestamp;\n        creationTime = block.timestamp;\n        petLevel = 1;\n        petHealth = 100;\n        alive = true;\n        atmAddress = _atm;\n        petRace = PetRace.SHEEP;\n    }\n\n    function update() external override {\n        if(alive){\n            uint stamp = block.timestamp;\n            uint deltaTime = stamp - lastModTime;\n            lastModTime = stamp;\n\n            //updating level\n            restPetLevel += (deltaTime % levelDownTime);\n            if(restPetLevel > levelDownTime){\n                petLevel += restPetLevel/levelDownTime;\n                restPetLevel = (restPetLevel % levelDownTime);\n            }\n            petLevel += (deltaTime/levelDownTime);\n\n            //updating health\n            //rest adding\n            restPetHealth += (deltaTime % healthDownTime);\n            if((restPetHealth > healthDownTime) && (petHealth >= restPetHealth/healthDownTime)){\n                petHealth -= restPetHealth/healthDownTime;\n                restPetHealth = (restPetHealth % healthDownTime);\n            }\n            //division adding\n            if(petHealth <= (deltaTime/healthDownTime)){\n                petHealth = 0;\n                alive = false;\n                emit PetDied(address(this));\n            }\n            else{\n                petHealth -= (deltaTime/healthDownTime);\n            }\n        }\n        else{\n            petHealth = 0;\n        }\n\t}\n\n    function feed() external override isOwner(msg.sender) isAlive {\n        this.update();\n        ATM(atmAddress).burnToken(feedCost, msg.sender);\n        if((petHealth + feedHealth) >= 100){\n            petHealth = 100;\n        }\n        else{\n            petHealth += feedHealth;\n        }\n    }\n\n    function damage() external override isOwner(msg.sender) returns (bool success) {\n        this.update();\n        ATM(atmAddress).burnToken(damageCost, msg.sender);\n        if(petHealth <= damageValue){\n            petHealth = 0;\n            alive = false;\n            emit PetDied(address(this));\n        }\n        else{\n            petHealth -= damageValue;\n        }\n        return true;\n    }\n\n    function play(uint number) external override {\n        require(number>=0 && number <=100, \"Gamble must be in range 0 -100\");\n        uint result = uint(keccak256(abi.encodePacked(block.timestamp,block.difficulty, msg.sender))) % (number*2);\n        this.update();\n        if(result >= number){\n            if((petHealth + (result-number)) >= 100){\n                petHealth = 100;\n            }\n            else{\n                petHealth += (result-number);\n            }\n        }\n        else{\n            if(petHealth <= (number-result)){\n                petHealth = 0;\n                alive = false;\n                emit PetDied(address(this));\n            }\n            else{\n                petHealth -= (number-result);\n            }\n        }\n    }\n}",
  "sourcePath": "/Users/georg/truffle/e01604873/contracts/VirtualPet.sol",
  "compiler": {
    "name": "solc",
    "version": "0.8.15+commit.e14f2714.Emscripten.clang"
  },
  "schemaVersion": "3.4.6",
  "updatedAt": "2022-06-16T20:08:09.329Z",
  "devdoc": {
    "kind": "dev",
    "methods": {},
    "version": 1
  },
  "userdoc": {
    "kind": "user",
    "methods": {},
    "version": 1
  }
}