{
  "contractName": "PetRobbe",
  "abi": [
    {
      "inputs": [
        {
          "internalType": "address",
          "name": "_owner",
          "type": "address"
        },
        {
          "internalType": "string",
          "name": "_petName",
          "type": "string"
        },
        {
          "internalType": "address",
          "name": "_atm",
          "type": "address"
        }
      ],
      "stateMutability": "nonpayable",
      "type": "constructor"
    },
    {
      "anonymous": false,
      "inputs": [
        {
          "indexed": false,
          "internalType": "address",
          "name": "pet",
          "type": "address"
        }
      ],
      "name": "PetDied",
      "type": "event"
    },
    {
      "inputs": [],
      "name": "alive",
      "outputs": [
        {
          "internalType": "bool",
          "name": "",
          "type": "bool"
        }
      ],
      "stateMutability": "view",
      "type": "function"
    },
    {
      "inputs": [
        {
          "internalType": "address",
          "name": "_owner",
          "type": "address"
        }
      ],
      "name": "changeOwner",
      "outputs": [
        {
          "internalType": "address",
          "name": "newOwner",
          "type": "address"
        }
      ],
      "stateMutability": "nonpayable",
      "type": "function"
    },
    {
      "inputs": [],
      "name": "creationTime",
      "outputs": [
        {
          "internalType": "uint256",
          "name": "",
          "type": "uint256"
        }
      ],
      "stateMutability": "view",
      "type": "function"
    },
    {
      "inputs": [],
      "name": "getPetHealth",
      "outputs": [
        {
          "internalType": "uint256",
          "name": "health",
          "type": "uint256"
        }
      ],
      "stateMutability": "view",
      "type": "function"
    },
    {
      "inputs": [],
      "name": "getPetLevel",
      "outputs": [
        {
          "internalType": "uint256",
          "name": "level",
          "type": "uint256"
        }
      ],
      "stateMutability": "view",
      "type": "function"
    },
    {
      "inputs": [],
      "name": "getPetOwner",
      "outputs": [
        {
          "internalType": "address",
          "name": "",
          "type": "address"
        }
      ],
      "stateMutability": "view",
      "type": "function"
    },
    {
      "inputs": [],
      "name": "getPetRace",
      "outputs": [
        {
          "internalType": "enum VirtualPet.PetRace",
          "name": "",
          "type": "uint8"
        }
      ],
      "stateMutability": "view",
      "type": "function"
    },
    {
      "inputs": [],
      "name": "getPetStatus",
      "outputs": [
        {
          "internalType": "bool",
          "name": "",
          "type": "bool"
        }
      ],
      "stateMutability": "view",
      "type": "function"
    },
    {
      "inputs": [],
      "name": "lastModTime",
      "outputs": [
        {
          "internalType": "uint256",
          "name": "",
          "type": "uint256"
        }
      ],
      "stateMutability": "view",
      "type": "function"
    },
    {
      "inputs": [],
      "name": "owner",
      "outputs": [
        {
          "internalType": "address",
          "name": "",
          "type": "address"
        }
      ],
      "stateMutability": "view",
      "type": "function"
    },
    {
      "inputs": [],
      "name": "petHealth",
      "outputs": [
        {
          "internalType": "uint256",
          "name": "",
          "type": "uint256"
        }
      ],
      "stateMutability": "view",
      "type": "function"
    },
    {
      "inputs": [],
      "name": "petLevel",
      "outputs": [
        {
          "internalType": "uint256",
          "name": "",
          "type": "uint256"
        }
      ],
      "stateMutability": "view",
      "type": "function"
    },
    {
      "inputs": [],
      "name": "petName",
      "outputs": [
        {
          "internalType": "string",
          "name": "",
          "type": "string"
        }
      ],
      "stateMutability": "view",
      "type": "function"
    },
    {
      "inputs": [],
      "name": "petRace",
      "outputs": [
        {
          "internalType": "enum VirtualPet.PetRace",
          "name": "",
          "type": "uint8"
        }
      ],
      "stateMutability": "view",
      "type": "function"
    },
    {
      "inputs": [],
      "name": "restPetHealth",
      "outputs": [
        {
          "internalType": "uint256",
          "name": "",
          "type": "uint256"
        }
      ],
      "stateMutability": "view",
      "type": "function"
    },
    {
      "inputs": [],
      "name": "restPetLevel",
      "outputs": [
        {
          "internalType": "uint256",
          "name": "",
          "type": "uint256"
        }
      ],
      "stateMutability": "view",
      "type": "function"
    },
    {
      "inputs": [],
      "name": "update",
      "outputs": [],
      "stateMutability": "nonpayable",
      "type": "function"
    },
    {
      "inputs": [],
      "name": "feed",
      "outputs": [],
      "stateMutability": "nonpayable",
      "type": "function"
    },
    {
      "inputs": [],
      "name": "damage",
      "outputs": [
        {
          "internalType": "bool",
          "name": "success",
          "type": "bool"
        }
      ],
      "stateMutability": "nonpayable",
      "type": "function"
    }
  ],
  "bytecode": "0x60806040523480156200001157600080fd5b506040516200169c3803806200169c8339818101604052810190620000379190620003f3565b82600160006101000a81548173ffffffffffffffffffffffffffffffffffffffff021916908373ffffffffffffffffffffffffffffffffffffffff16021790555081600290805190602001906200009092919062000141565b504260068190555042600581905550600160038190555060646004819055506001600760006101000a81548160ff021916908315150217905550806000806101000a81548173ffffffffffffffffffffffffffffffffffffffff021916908373ffffffffffffffffffffffffffffffffffffffff1602179055506001600a60006101000a81548160ff021916908360028111156200013357620001326200046e565b5b021790555050505062000501565b8280546200014f90620004cc565b90600052602060002090601f016020900481019282620001735760008555620001bf565b82601f106200018e57805160ff1916838001178555620001bf565b82800160010185558215620001bf579182015b82811115620001be578251825591602001919060010190620001a1565b5b509050620001ce9190620001d2565b5090565b5b80821115620001ed576000816000905550600101620001d3565b5090565b6000604051905090565b600080fd5b600080fd5b600073ffffffffffffffffffffffffffffffffffffffff82169050919050565b6000620002328262000205565b9050919050565b620002448162000225565b81146200025057600080fd5b50565b600081519050620002648162000239565b92915050565b600080fd5b600080fd5b6000601f19601f8301169050919050565b7f4e487b7100000000000000000000000000000000000000000000000000000000600052604160045260246000fd5b620002bf8262000274565b810181811067ffffffffffffffff82111715620002e157620002e062000285565b5b80604052505050565b6000620002f6620001f1565b9050620003048282620002b4565b919050565b600067ffffffffffffffff82111562000327576200032662000285565b5b620003328262000274565b9050602081019050919050565b60005b838110156200035f57808201518184015260208101905062000342565b838111156200036f576000848401525b50505050565b60006200038c620003868462000309565b620002ea565b905082815260208101848484011115620003ab57620003aa6200026f565b5b620003b88482856200033f565b509392505050565b600082601f830112620003d857620003d76200026a565b5b8151620003ea84826020860162000375565b91505092915050565b6000806000606084860312156200040f576200040e620001fb565b5b60006200041f8682870162000253565b935050602084015167ffffffffffffffff81111562000443576200044262000200565b5b6200045186828701620003c0565b9250506040620004648682870162000253565b9150509250925092565b7f4e487b7100000000000000000000000000000000000000000000000000000000600052602160045260246000fd5b7f4e487b7100000000000000000000000000000000000000000000000000000000600052602260045260246000fd5b60006002820490506001821680620004e557607f821691505b602082108103620004fb57620004fa6200049d565b5b50919050565b61118b80620005116000396000f3fe608060405234801561001057600080fd5b50600436106101215760003560e01c806389325c2c116100ad578063a2e6204511610071578063a2e62045146102b6578063a6f9dae1146102c0578063cc304515146102f0578063d8270dce1461030e578063ebebe63b1461032c57610121565b806389325c2c146102205780638b78192f1461023e5780638da5cb5b1461025c5780638fb257661461027a578063a1580f1a1461029857610121565b80634dcbf373116100f45780634dcbf3731461018a5780635e2c3c48146101a8578063753899e9146101c657806383205eed146101e457806383b27c651461020257610121565b806326e81fb9146101265780632f8245a81461014457806337a7b7d8146101625780634b2c979c1461016c575b600080fd5b61012e61034a565b60405161013b9190610be8565b60405180910390f35b61014c610361565b6040516101599190610c1c565b60405180910390f35b61016a610367565b005b61017461057d565b6040516101819190610cd0565b60405180910390f35b61019261060b565b60405161019f9190610c1c565b60405180910390f35b6101b0610611565b6040516101bd9190610c1c565b60405180910390f35b6101ce61061b565b6040516101db9190610be8565b60405180910390f35b6101ec61062e565b6040516101f99190610d69565b60405180910390f35b61020a610641565b6040516102179190610c1c565b60405180910390f35b610228610647565b6040516102359190610d69565b60405180910390f35b61024661065e565b6040516102539190610dc5565b60405180910390f35b610264610688565b6040516102719190610dc5565b60405180910390f35b6102826106ae565b60405161028f9190610c1c565b60405180910390f35b6102a06106b4565b6040516102ad9190610be8565b60405180910390f35b6102be6108c1565b005b6102da60048036038101906102d59190610e11565b610abb565b6040516102e79190610dc5565b60405180910390f35b6102f8610bb7565b6040516103059190610c1c565b60405180910390f35b610316610bc1565b6040516103239190610c1c565b60405180910390f35b610334610bc7565b6040516103419190610c1c565b60405180910390f35b6000600760009054906101000a900460ff16905090565b60095481565b338073ffffffffffffffffffffffffffffffffffffffff16600160009054906101000a900473ffffffffffffffffffffffffffffffffffffffff1673ffffffffffffffffffffffffffffffffffffffff16146103f8576040517f08c379a00000000000000000000000000000000000000000000000000000000081526004016103ef90610e8a565b60405180910390fd5b60011515600760009054906101000a900460ff1615151461044e576040517f08c379a000000000000000000000000000000000000000000000000000000000815260040161044590610ef6565b60405180910390fd5b3073ffffffffffffffffffffffffffffffffffffffff1663a2e620456040518163ffffffff1660e01b8152600401600060405180830381600087803b15801561049657600080fd5b505af11580156104aa573d6000803e3d6000fd5b5050505060008054906101000a900473ffffffffffffffffffffffffffffffffffffffff1673ffffffffffffffffffffffffffffffffffffffff1663dc593ca56005336040518363ffffffff1660e01b815260040161050a929190610f16565b600060405180830381600087803b15801561052457600080fd5b505af1158015610538573d6000803e3d6000fd5b505050506064601460045461054d9190610f6e565b1061055f57606460048190555061057a565b6014600460008282546105729190610f6e565b925050819055505b50565b6002805461058a90610ff3565b80601f01602080910402602001604051908101604052809291908181526020018280546105b690610ff3565b80156106035780601f106105d857610100808354040283529160200191610603565b820191906000526020600020905b8154815290600101906020018083116105e657829003601f168201915b505050505081565b60045481565b6000600354905090565b600760009054906101000a900460ff1681565b600a60009054906101000a900460ff1681565b60065481565b6000600a60009054906101000a900460ff16905090565b6000600160009054906101000a900473ffffffffffffffffffffffffffffffffffffffff16905090565b600160009054906101000a900473ffffffffffffffffffffffffffffffffffffffff1681565b60035481565b6000338073ffffffffffffffffffffffffffffffffffffffff16600160009054906101000a900473ffffffffffffffffffffffffffffffffffffffff1673ffffffffffffffffffffffffffffffffffffffff1614610747576040517f08c379a000000000000000000000000000000000000000000000000000000000815260040161073e90610e8a565b60405180910390fd5b3073ffffffffffffffffffffffffffffffffffffffff1663a2e620456040518163ffffffff1660e01b8152600401600060405180830381600087803b15801561078f57600080fd5b505af11580156107a3573d6000803e3d6000fd5b5050505060008054906101000a900473ffffffffffffffffffffffffffffffffffffffff1673ffffffffffffffffffffffffffffffffffffffff1663dc593ca56005336040518363ffffffff1660e01b8152600401610803929190610f16565b600060405180830381600087803b15801561081d57600080fd5b505af1158015610831573d6000803e3d6000fd5b5050505060146004541161089e5760006004819055506000600760006101000a81548160ff0219169083151502179055507f5691c23761c54f62406d00fa0c93278f1bab9e0ab38abee5ce86d2c33743819c306040516108919190610dc5565b60405180910390a16108b9565b6014600460008282546108b19190611024565b925050819055505b600191505090565b600760009054906101000a900460ff1615610ab05760004290506000600654826108eb9190611024565b905081600681905550600a816109019190611087565b600960008282546109129190610f6e565b92505081905550600a600954111561096157600a60095461093391906110b8565b600360008282546109449190610f6e565b92505081905550600a60095461095a9190611087565b6009819055505b600a8161096e91906110b8565b6003600082825461097f9190610f6e565b92505081905550603c816109939190611087565b600860008282546109a49190610f6e565b92505081905550603c6008541180156109cd5750603c6008546109c791906110b8565b60045410155b15610a0f57603c6008546109e191906110b8565b600460008282546109f29190611024565b92505081905550603c600854610a089190611087565b6008819055505b603c81610a1c91906110b8565b60045411610a835760006004819055506000600760006101000a81548160ff0219169083151502179055507f5691c23761c54f62406d00fa0c93278f1bab9e0ab38abee5ce86d2c33743819c30604051610a769190610dc5565b60405180910390a1610aa9565b603c81610a9091906110b8565b60046000828254610aa19190611024565b925050819055505b5050610ab9565b60006004819055505b565b60008060009054906101000a900473ffffffffffffffffffffffffffffffffffffffff1673ffffffffffffffffffffffffffffffffffffffff163373ffffffffffffffffffffffffffffffffffffffff1614610b4c576040517f08c379a0000000000000000000000000000000000000000000000000000000008152600401610b4390611135565b60405180910390fd5b81600160006101000a81548173ffffffffffffffffffffffffffffffffffffffff021916908373ffffffffffffffffffffffffffffffffffffffff160217905550600160009054906101000a900473ffffffffffffffffffffffffffffffffffffffff169050919050565b6000600454905090565b60055481565b60085481565b60008115159050919050565b610be281610bcd565b82525050565b6000602082019050610bfd6000830184610bd9565b92915050565b6000819050919050565b610c1681610c03565b82525050565b6000602082019050610c316000830184610c0d565b92915050565b600081519050919050565b600082825260208201905092915050565b60005b83811015610c71578082015181840152602081019050610c56565b83811115610c80576000848401525b50505050565b6000601f19601f8301169050919050565b6000610ca282610c37565b610cac8185610c42565b9350610cbc818560208601610c53565b610cc581610c86565b840191505092915050565b60006020820190508181036000830152610cea8184610c97565b905092915050565b7f4e487b7100000000000000000000000000000000000000000000000000000000600052602160045260246000fd5b60038110610d3257610d31610cf2565b5b50565b6000819050610d4382610d21565b919050565b6000610d5382610d35565b9050919050565b610d6381610d48565b82525050565b6000602082019050610d7e6000830184610d5a565b92915050565b600073ffffffffffffffffffffffffffffffffffffffff82169050919050565b6000610daf82610d84565b9050919050565b610dbf81610da4565b82525050565b6000602082019050610dda6000830184610db6565b92915050565b600080fd5b610dee81610da4565b8114610df957600080fd5b50565b600081359050610e0b81610de5565b92915050565b600060208284031215610e2757610e26610de0565b5b6000610e3584828501610dfc565b91505092915050565b7f7065726d697373696f6e2064656e696564210000000000000000000000000000600082015250565b6000610e74601283610c42565b9150610e7f82610e3e565b602082019050919050565b60006020820190508181036000830152610ea381610e67565b9050919050565b7f7065742069732064656164210000000000000000000000000000000000000000600082015250565b6000610ee0600c83610c42565b9150610eeb82610eaa565b602082019050919050565b60006020820190508181036000830152610f0f81610ed3565b9050919050565b6000604082019050610f2b6000830185610c0d565b610f386020830184610db6565b9392505050565b7f4e487b7100000000000000000000000000000000000000000000000000000000600052601160045260246000fd5b6000610f7982610c03565b9150610f8483610c03565b9250827fffffffffffffffffffffffffffffffffffffffffffffffffffffffffffffffff03821115610fb957610fb8610f3f565b5b828201905092915050565b7f4e487b7100000000000000000000000000000000000000000000000000000000600052602260045260246000fd5b6000600282049050600182168061100b57607f821691505b60208210810361101e5761101d610fc4565b5b50919050565b600061102f82610c03565b915061103a83610c03565b92508282101561104d5761104c610f3f565b5b828203905092915050565b7f4e487b7100000000000000000000000000000000000000000000000000000000600052601260045260246000fd5b600061109282610c03565b915061109d83610c03565b9250826110ad576110ac611058565b5b828206905092915050565b60006110c382610c03565b91506110ce83610c03565b9250826110de576110dd611058565b5b828204905092915050565b7f4f6e6c792041544d2063616e206368616e676520706574206f776e6572210000600082015250565b600061111f601e83610c42565b915061112a826110e9565b602082019050919050565b6000602082019050818103600083015261114e81611112565b905091905056fea2646970667358221220650dbde7480272bcec1b6c159c72773149d56c55f0831390e7305dbf47615c2c64736f6c634300080e0033",
  "immutableReferences": {},
  "source": "// SPDX-License-Identifier: MIT\npragma solidity ^0.8.0;\n\nimport \"./ATM.sol\";\n\nabstract contract VirtualPet {\n\n    address internal atmAddress;\n    address public owner;\n    string public petName;\n    uint256 public petLevel;\n    uint256 public petHealth;\n    uint256 public creationTime;\n    uint256 public lastModTime;\n    bool public alive;\n\n    uint256 public restPetHealth;\n    uint256 public restPetLevel;\n\n    //level up every 10 seconds\n    uint256 internal constant levelDownTime = 10;\n    //level up every 60 seconds\n    uint256 internal constant healthDownTime = 60;\n\n    //interactions costs & values\n    uint256 internal constant feedCost = 5;\n    uint256 internal constant feedHealth = 20;\n\n    uint256 internal constant damageCost = 5;\n    uint256 internal constant damageValue = 20;\n\n    enum PetRace{NONE,ROBBE, DOG}\n    PetRace public petRace;\n\n    event PetDied(address pet);\n\n    // constructor(address _owner, string memory _petName) {\n    //     owner = _owner;\n    //     petName = string(_petName);\n    //     lastModTime = block.timestamp;\n    //     creationTime = block.timestamp;\n    //     petLevel = 1;\n    //     petHealth = 100;\n    //     alive = true;\n    //     atmAddress = msg.sender;\n    // }\n\n    modifier isOwner(address _owner) {\n        require(owner == _owner, \"permission denied!\");\n        _;\n    }\n\n    modifier isAlive() {\n        require(alive == true, \"pet is dead!\");\n        _;\n    }\n\n    function changeOwner(address _owner) external returns (address newOwner){\n        require(msg.sender == atmAddress, \"Only ATM can change pet owner!\");\n        owner = _owner;\n        return owner;\n    }\n\n    function getPetLevel() external view returns(uint256 level) {\n        return petLevel;\n    }\n\n    function getPetHealth() external view returns(uint256 health) {\n        return petHealth;\n    }\n\n    function getPetOwner() external view returns(address) {\n        return owner;\n    }\n\n    function getPetStatus() external view returns(bool) {\n        return alive;\n    }\n\n    function getPetRace() external view returns(PetRace) {\n        return petRace;\n    }\n\n    function update() external virtual;\n\n    function feed() external virtual;\n\n    function damage() external virtual returns (bool success);\n\n    // function update() external {\n    //     if(alive){\n    //         uint stamp = block.timestamp;\n    //         uint deltaTime = stamp - lastModTime;\n    //         lastModTime = stamp;\n\n    //         //updating level\n    //         restPetLevel += (deltaTime % levelDownTime);\n    //         if(restPetLevel > levelDownTime){\n    //             petLevel += restPetLevel/levelDownTime;\n    //             restPetLevel = (restPetLevel % levelDownTime);\n    //         }\n    //         petLevel += (deltaTime/levelDownTime);\n\n    //         //updating health\n    //         //rest adding\n    //         restPetHealth += (deltaTime % healthDownTime);\n    //         if((restPetHealth > healthDownTime) && (petHealth >= restPetHealth/healthDownTime)){\n    //             petHealth -= restPetHealth/healthDownTime;\n    //             restPetHealth = (restPetHealth % healthDownTime);\n    //         }\n    //         //division adding\n    //         if(petHealth <= (deltaTime/healthDownTime)){\n    //             petHealth = 0;\n    //             alive = false;\n    //             emit PetDied(address(this));\n    //         }\n    //         else{\n    //             petHealth -= (deltaTime/healthDownTime);\n    //         }\n    //     }\n    //     else{\n    //         petHealth = 0;\n    //     }\n\t// }\n\n    // function feed() external isOwner(msg.sender) isAlive {\n    //     this.update();\n    //     ATM(atmAddress).burnToken(feedCost, msg.sender);\n    //     if((petHealth + feedHealth) >= 100){\n    //         petHealth = 100;\n    //     }\n    //     else{\n    //         petHealth += feedHealth;\n    //     }\n    // }\n\n    // //overflow - because using uint (unsigned) and proof if < 0 ... same problem with update error\n    // function damage() external isOwner(msg.sender) returns (bool success) {\n    //     this.update();\n    //     ATM(atmAddress).burnToken(damageCost, msg.sender);\n    //     if(petHealth <= damageValue){\n    //         petHealth = 0;\n    //         alive = false;\n    //         emit PetDied(address(this));\n    //     }\n    //     else{\n    //         petHealth -= damageValue;\n    //     }\n    //     return true;\n    // }\n}\n\n\ncontract PetRobbe is VirtualPet {\n\n    constructor(address _owner, string memory _petName, address _atm) {\n        owner = _owner;\n        petName = string(_petName);\n        lastModTime = block.timestamp;\n        creationTime = block.timestamp;\n        petLevel = 1;\n        petHealth = 100;\n        alive = true;\n        atmAddress = _atm;\n        petRace = PetRace.ROBBE;\n    }\n\n\n    function update() external override {\n        if(alive){\n            uint stamp = block.timestamp;\n            uint deltaTime = stamp - lastModTime;\n            lastModTime = stamp;\n\n            //updating level\n            restPetLevel += (deltaTime % levelDownTime);\n            if(restPetLevel > levelDownTime){\n                petLevel += restPetLevel/levelDownTime;\n                restPetLevel = (restPetLevel % levelDownTime);\n            }\n            petLevel += (deltaTime/levelDownTime);\n\n            //updating health\n            //rest adding\n            restPetHealth += (deltaTime % healthDownTime);\n            if((restPetHealth > healthDownTime) && (petHealth >= restPetHealth/healthDownTime)){\n                petHealth -= restPetHealth/healthDownTime;\n                restPetHealth = (restPetHealth % healthDownTime);\n            }\n            //division adding\n            if(petHealth <= (deltaTime/healthDownTime)){\n                petHealth = 0;\n                alive = false;\n                emit PetDied(address(this));\n            }\n            else{\n                petHealth -= (deltaTime/healthDownTime);\n            }\n        }\n        else{\n            petHealth = 0;\n        }\n\t}\n\n    function feed() external override isOwner(msg.sender) isAlive {\n        this.update();\n        ATM(atmAddress).burnToken(feedCost, msg.sender);\n        if((petHealth + feedHealth) >= 100){\n            petHealth = 100;\n        }\n        else{\n            petHealth += feedHealth;\n        }\n    }\n\n    //overflow - because using uint (unsigned) and proof if < 0 ... same problem with update error\n    function damage() external override isOwner(msg.sender) returns (bool success) {\n        this.update();\n        ATM(atmAddress).burnToken(damageCost, msg.sender);\n        if(petHealth <= damageValue){\n            petHealth = 0;\n            alive = false;\n            emit PetDied(address(this));\n        }\n        else{\n            petHealth -= damageValue;\n        }\n        return true;\n    }\n}\n\n\n\ncontract PetDog is VirtualPet {\n\n    constructor(address _owner, string memory _petName, address _atm) {\n        owner = _owner;\n        petName = string(_petName);\n        lastModTime = block.timestamp;\n        creationTime = block.timestamp;\n        petLevel = 1;\n        petHealth = 100;\n        alive = true;\n        atmAddress = msg.sender;\n        petRace = PetRace.DOG;\n    }\n\n    function update() external override {\n        if(alive){\n            uint stamp = block.timestamp;\n            uint deltaTime = stamp - lastModTime;\n            lastModTime = stamp;\n\n            //updating level\n            restPetLevel += (deltaTime % levelDownTime);\n            if(restPetLevel > levelDownTime){\n                petLevel += restPetLevel/levelDownTime;\n                restPetLevel = (restPetLevel % levelDownTime);\n            }\n            petLevel += (deltaTime/levelDownTime);\n\n            //updating health\n            //rest adding\n            restPetHealth += (deltaTime % healthDownTime);\n            if((restPetHealth > healthDownTime) && (petHealth >= restPetHealth/healthDownTime)){\n                petHealth -= restPetHealth/healthDownTime;\n                restPetHealth = (restPetHealth % healthDownTime);\n            }\n            //division adding\n            if(petHealth <= (deltaTime/healthDownTime)){\n                petHealth = 0;\n                alive = false;\n                emit PetDied(address(this));\n            }\n            else{\n                petHealth -= (deltaTime/healthDownTime);\n            }\n        }\n        else{\n            petHealth = 0;\n        }\n\t}\n\n    function feed() external override isOwner(msg.sender) isAlive {\n        this.update();\n        ATM(atmAddress).burnToken(feedCost, msg.sender);\n        if((petHealth + feedHealth) >= 100){\n            petHealth = 100;\n        }\n        else{\n            petHealth += feedHealth;\n        }\n    }\n\n    //overflow - because using uint (unsigned) and proof if < 0 ... same problem with update error\n    function damage() external override isOwner(msg.sender) returns (bool success) {\n        this.update();\n        ATM(atmAddress).burnToken(damageCost, msg.sender);\n        if(petHealth <= damageValue){\n            petHealth = 0;\n            alive = false;\n            emit PetDied(address(this));\n        }\n        else{\n            petHealth -= damageValue;\n        }\n        return true;\n    }\n}",
  "sourcePath": "/Users/georg/truffle/e01604873/contracts/VirtualPet.sol",
  "compiler": {
    "name": "solc",
    "version": "0.8.14+commit.80d49f37.Emscripten.clang"
  },
  "schemaVersion": "3.4.6",
  "updatedAt": "2022-06-14T13:02:36.566Z",
  "devdoc": {
    "kind": "dev",
    "methods": {},
    "version": 1
  },
  "userdoc": {
    "kind": "user",
    "methods": {},
    "version": 1
  }
}