{
  "contractName": "PetToken",
  "abi": [
    {
      "inputs": [],
      "stateMutability": "nonpayable",
      "type": "constructor"
    },
    {
      "anonymous": false,
      "inputs": [
        {
          "indexed": true,
          "internalType": "address",
          "name": "owner",
          "type": "address"
        },
        {
          "indexed": true,
          "internalType": "address",
          "name": "spender",
          "type": "address"
        },
        {
          "indexed": false,
          "internalType": "uint256",
          "name": "value",
          "type": "uint256"
        }
      ],
      "name": "Approval",
      "type": "event"
    },
    {
      "anonymous": false,
      "inputs": [
        {
          "indexed": true,
          "internalType": "address",
          "name": "from",
          "type": "address"
        },
        {
          "indexed": true,
          "internalType": "address",
          "name": "to",
          "type": "address"
        },
        {
          "indexed": false,
          "internalType": "uint256",
          "name": "value",
          "type": "uint256"
        }
      ],
      "name": "Transfer",
      "type": "event"
    },
    {
      "inputs": [
        {
          "internalType": "address",
          "name": "",
          "type": "address"
        }
      ],
      "name": "balances",
      "outputs": [
        {
          "internalType": "uint256",
          "name": "",
          "type": "uint256"
        }
      ],
      "stateMutability": "view",
      "type": "function",
      "constant": true
    },
    {
      "inputs": [],
      "name": "setTokenOwner",
      "outputs": [
        {
          "internalType": "address",
          "name": "newOwner",
          "type": "address"
        }
      ],
      "stateMutability": "nonpayable",
      "type": "function"
    },
    {
      "inputs": [],
      "name": "totalSupply",
      "outputs": [
        {
          "internalType": "uint256",
          "name": "",
          "type": "uint256"
        }
      ],
      "stateMutability": "view",
      "type": "function",
      "constant": true
    },
    {
      "inputs": [],
      "name": "name",
      "outputs": [
        {
          "internalType": "string",
          "name": "",
          "type": "string"
        }
      ],
      "stateMutability": "view",
      "type": "function",
      "constant": true
    },
    {
      "inputs": [],
      "name": "symbol",
      "outputs": [
        {
          "internalType": "string",
          "name": "",
          "type": "string"
        }
      ],
      "stateMutability": "view",
      "type": "function",
      "constant": true
    },
    {
      "inputs": [],
      "name": "decimals",
      "outputs": [
        {
          "internalType": "uint8",
          "name": "",
          "type": "uint8"
        }
      ],
      "stateMutability": "view",
      "type": "function",
      "constant": true
    },
    {
      "inputs": [
        {
          "internalType": "address",
          "name": "tokenOwner",
          "type": "address"
        }
      ],
      "name": "balanceOf",
      "outputs": [
        {
          "internalType": "uint256",
          "name": "",
          "type": "uint256"
        }
      ],
      "stateMutability": "view",
      "type": "function",
      "constant": true
    },
    {
      "inputs": [
        {
          "internalType": "address",
          "name": "receiver",
          "type": "address"
        },
        {
          "internalType": "uint256",
          "name": "numTokens",
          "type": "uint256"
        }
      ],
      "name": "transfer",
      "outputs": [
        {
          "internalType": "bool",
          "name": "success",
          "type": "bool"
        }
      ],
      "stateMutability": "nonpayable",
      "type": "function"
    },
    {
      "inputs": [
        {
          "internalType": "address",
          "name": "delegate",
          "type": "address"
        },
        {
          "internalType": "uint256",
          "name": "numTokens",
          "type": "uint256"
        }
      ],
      "name": "approve",
      "outputs": [
        {
          "internalType": "bool",
          "name": "success",
          "type": "bool"
        }
      ],
      "stateMutability": "nonpayable",
      "type": "function"
    },
    {
      "inputs": [
        {
          "internalType": "address",
          "name": "_owner",
          "type": "address"
        },
        {
          "internalType": "address",
          "name": "_delegate",
          "type": "address"
        }
      ],
      "name": "allowance",
      "outputs": [
        {
          "internalType": "uint256",
          "name": "",
          "type": "uint256"
        }
      ],
      "stateMutability": "view",
      "type": "function",
      "constant": true
    },
    {
      "inputs": [
        {
          "internalType": "address",
          "name": "_owner",
          "type": "address"
        },
        {
          "internalType": "address",
          "name": "buyer",
          "type": "address"
        },
        {
          "internalType": "uint256",
          "name": "numTokens",
          "type": "uint256"
        }
      ],
      "name": "transferFrom",
      "outputs": [
        {
          "internalType": "bool",
          "name": "",
          "type": "bool"
        }
      ],
      "stateMutability": "nonpayable",
      "type": "function"
    },
    {
      "inputs": [
        {
          "internalType": "address",
          "name": "account",
          "type": "address"
        },
        {
          "internalType": "uint256",
          "name": "value",
          "type": "uint256"
        }
      ],
      "name": "mintToken",
      "outputs": [
        {
          "internalType": "bool",
          "name": "success",
          "type": "bool"
        }
      ],
      "stateMutability": "nonpayable",
      "type": "function"
    },
    {
      "inputs": [
        {
          "internalType": "address",
          "name": "account",
          "type": "address"
        },
        {
          "internalType": "uint256",
          "name": "value",
          "type": "uint256"
        }
      ],
      "name": "burnToken",
      "outputs": [
        {
          "internalType": "bool",
          "name": "success",
          "type": "bool"
        }
      ],
      "stateMutability": "nonpayable",
      "type": "function"
    }
  ],
  "bytecode": "0x608060405260006005553480156200001657600080fd5b506040518060400160405280600781526020017f506574636f696e00000000000000000000000000000000000000000000000000815250600090816200005d919062000341565b506040518060400160405280600381526020017f5e5f5e000000000000000000000000000000000000000000000000000000000081525060019081620000a4919062000341565b506000600260006101000a81548160ff021916908360ff16021790555062000428565b600081519050919050565b7f4e487b7100000000000000000000000000000000000000000000000000000000600052604160045260246000fd5b7f4e487b7100000000000000000000000000000000000000000000000000000000600052602260045260246000fd5b600060028204905060018216806200014957607f821691505b6020821081036200015f576200015e62000101565b5b50919050565b60008190508160005260206000209050919050565b60006020601f8301049050919050565b600082821b905092915050565b600060088302620001c97fffffffffffffffffffffffffffffffffffffffffffffffffffffffffffffffff826200018a565b620001d586836200018a565b95508019841693508086168417925050509392505050565b6000819050919050565b6000819050919050565b6000620002226200021c6200021684620001ed565b620001f7565b620001ed565b9050919050565b6000819050919050565b6200023e8362000201565b620002566200024d8262000229565b84845462000197565b825550505050565b600090565b6200026d6200025e565b6200027a81848462000233565b505050565b5b81811015620002a2576200029660008262000263565b60018101905062000280565b5050565b601f821115620002f157620002bb8162000165565b620002c6846200017a565b81016020851015620002d6578190505b620002ee620002e5856200017a565b8301826200027f565b50505b505050565b600082821c905092915050565b60006200031660001984600802620002f6565b1980831691505092915050565b600062000331838362000303565b9150826002028217905092915050565b6200034c82620000c7565b67ffffffffffffffff811115620003685762000367620000d2565b5b62000374825462000130565b62000381828285620002a6565b600060209050601f831160018114620003b95760008415620003a4578287015190505b620003b0858262000323565b86555062000420565b601f198416620003c98662000165565b60005b82811015620003f357848901518255600182019150602085019450602081019050620003cc565b868310156200041357848901516200040f601f89168262000303565b8355505b6001600288020188555050505b505050505050565b6113b380620004386000396000f3fe608060405234801561001057600080fd5b50600436106100cf5760003560e01c8063313ce5671161008c57806395d89b411161006657806395d89b411461023c578063a9059cbb1461025a578063d1df306c1461028a578063dd62ed3e146102ba576100cf565b8063313ce567146101be57806370a08231146101dc57806379c650681461020c576100cf565b806306fdde03146100d4578063095ea7b3146100f257806314ac36d11461012257806318160ddd1461014057806323b872dd1461015e57806327e235e31461018e575b600080fd5b6100dc6102ea565b6040516100e99190610ea4565b60405180910390f35b61010c60048036038101906101079190610f5f565b61037c565b6040516101199190610fba565b60405180910390f35b61012a61046e565b6040516101379190610fe4565b60405180910390f35b610148610569565b604051610155919061100e565b60405180910390f35b61017860048036038101906101739190611029565b610573565b6040516101859190610fba565b60405180910390f35b6101a860048036038101906101a3919061107c565b610813565b6040516101b5919061100e565b60405180910390f35b6101c661082b565b6040516101d391906110c5565b60405180910390f35b6101f660048036038101906101f1919061107c565b610842565b604051610203919061100e565b60405180910390f35b61022660048036038101906102219190610f5f565b61088b565b6040516102339190610fba565b60405180910390f35b610244610991565b6040516102519190610ea4565b60405180910390f35b610274600480360381019061026f9190610f5f565b610a23565b6040516102819190610fba565b60405180910390f35b6102a4600480360381019061029f9190610f5f565b610bfc565b6040516102b19190610fba565b60405180910390f35b6102d460048036038101906102cf91906110e0565b610d84565b6040516102e1919061100e565b60405180910390f35b6060600080546102f99061114f565b80601f01602080910402602001604051908101604052809291908181526020018280546103259061114f565b80156103725780601f1061034757610100808354040283529160200191610372565b820191906000526020600020905b81548152906001019060200180831161035557829003601f168201915b5050505050905090565b600081600460003373ffffffffffffffffffffffffffffffffffffffff1673ffffffffffffffffffffffffffffffffffffffff16815260200190815260200160002060008573ffffffffffffffffffffffffffffffffffffffff1673ffffffffffffffffffffffffffffffffffffffff168152602001908152602001600020819055508273ffffffffffffffffffffffffffffffffffffffff163373ffffffffffffffffffffffffffffffffffffffff167f8c5be1e5ebec7d5bd14f71427d1e84f3dd0314c0f7b2291e5b200ac8c7c3b9258460405161045c919061100e565b60405180910390a36001905092915050565b60008073ffffffffffffffffffffffffffffffffffffffff16600260019054906101000a900473ffffffffffffffffffffffffffffffffffffffff1673ffffffffffffffffffffffffffffffffffffffff1614610500576040517f08c379a00000000000000000000000000000000000000000000000000000000081526004016104f7906111cc565b60405180910390fd5b33600260016101000a81548173ffffffffffffffffffffffffffffffffffffffff021916908373ffffffffffffffffffffffffffffffffffffffff160217905550600260019054906101000a900473ffffffffffffffffffffffffffffffffffffffff16905090565b6000600554905090565b60003373ffffffffffffffffffffffffffffffffffffffff16600260019054906101000a900473ffffffffffffffffffffffffffffffffffffffff1673ffffffffffffffffffffffffffffffffffffffff1614610605576040517f08c379a00000000000000000000000000000000000000000000000000000000081526004016105fc90611238565b60405180910390fd5b600360008573ffffffffffffffffffffffffffffffffffffffff1673ffffffffffffffffffffffffffffffffffffffff16815260200190815260200160002054821115610687576040517f08c379a000000000000000000000000000000000000000000000000000000000815260040161067e906112a4565b60405180910390fd5b81600360008673ffffffffffffffffffffffffffffffffffffffff1673ffffffffffffffffffffffffffffffffffffffff168152602001908152602001600020546106d291906112f3565b600360008673ffffffffffffffffffffffffffffffffffffffff1673ffffffffffffffffffffffffffffffffffffffff1681526020019081526020016000208190555081600360008573ffffffffffffffffffffffffffffffffffffffff1673ffffffffffffffffffffffffffffffffffffffff168152602001908152602001600020546107609190611327565b600360008573ffffffffffffffffffffffffffffffffffffffff1673ffffffffffffffffffffffffffffffffffffffff168152602001908152602001600020819055508273ffffffffffffffffffffffffffffffffffffffff168473ffffffffffffffffffffffffffffffffffffffff167fddf252ad1be2c89b69c2b068fc378daa952ba7f163c4a11628f55a4df523b3ef84604051610800919061100e565b60405180910390a3600190509392505050565b60036020528060005260406000206000915090505481565b6000600260009054906101000a900460ff16905090565b6000600360008373ffffffffffffffffffffffffffffffffffffffff1673ffffffffffffffffffffffffffffffffffffffff168152602001908152602001600020549050919050565b60003373ffffffffffffffffffffffffffffffffffffffff16600260019054906101000a900473ffffffffffffffffffffffffffffffffffffffff1673ffffffffffffffffffffffffffffffffffffffff161461091d576040517f08c379a000000000000000000000000000000000000000000000000000000000815260040161091490611238565b60405180910390fd5b81600360008573ffffffffffffffffffffffffffffffffffffffff1673ffffffffffffffffffffffffffffffffffffffff168152602001908152602001600020600082825461096c9190611327565b92505081905550816005546109819190611327565b6005819055506001905092915050565b6060600180546109a09061114f565b80601f01602080910402602001604051908101604052809291908181526020018280546109cc9061114f565b8015610a195780601f106109ee57610100808354040283529160200191610a19565b820191906000526020600020905b8154815290600101906020018083116109fc57829003601f168201915b5050505050905090565b6000600360003373ffffffffffffffffffffffffffffffffffffffff1673ffffffffffffffffffffffffffffffffffffffff16815260200190815260200160002054821115610a7157600080fd5b81600360003373ffffffffffffffffffffffffffffffffffffffff1673ffffffffffffffffffffffffffffffffffffffff16815260200190815260200160002054610abc91906112f3565b600360003373ffffffffffffffffffffffffffffffffffffffff1673ffffffffffffffffffffffffffffffffffffffff1681526020019081526020016000208190555081600360008573ffffffffffffffffffffffffffffffffffffffff1673ffffffffffffffffffffffffffffffffffffffff16815260200190815260200160002054610b4a9190611327565b600360008573ffffffffffffffffffffffffffffffffffffffff1673ffffffffffffffffffffffffffffffffffffffff168152602001908152602001600020819055508273ffffffffffffffffffffffffffffffffffffffff163373ffffffffffffffffffffffffffffffffffffffff167fddf252ad1be2c89b69c2b068fc378daa952ba7f163c4a11628f55a4df523b3ef84604051610bea919061100e565b60405180910390a36001905092915050565b60003373ffffffffffffffffffffffffffffffffffffffff16600260019054906101000a900473ffffffffffffffffffffffffffffffffffffffff1673ffffffffffffffffffffffffffffffffffffffff1614610c8e576040517f08c379a0000000000000000000000000000000000000000000000000000000008152600401610c8590611238565b60405180910390fd5b81600360008573ffffffffffffffffffffffffffffffffffffffff1673ffffffffffffffffffffffffffffffffffffffff168152602001908152602001600020541015610d10576040517f08c379a0000000000000000000000000000000000000000000000000000000008152600401610d07906112a4565b60405180910390fd5b81600360008573ffffffffffffffffffffffffffffffffffffffff1673ffffffffffffffffffffffffffffffffffffffff1681526020019081526020016000206000828254610d5f91906112f3565b9250508190555081600554610d7491906112f3565b6005819055506001905092915050565b6000600460008473ffffffffffffffffffffffffffffffffffffffff1673ffffffffffffffffffffffffffffffffffffffff16815260200190815260200160002060008373ffffffffffffffffffffffffffffffffffffffff1673ffffffffffffffffffffffffffffffffffffffff16815260200190815260200160002054905092915050565b600081519050919050565b600082825260208201905092915050565b60005b83811015610e45578082015181840152602081019050610e2a565b83811115610e54576000848401525b50505050565b6000601f19601f8301169050919050565b6000610e7682610e0b565b610e808185610e16565b9350610e90818560208601610e27565b610e9981610e5a565b840191505092915050565b60006020820190508181036000830152610ebe8184610e6b565b905092915050565b600080fd5b600073ffffffffffffffffffffffffffffffffffffffff82169050919050565b6000610ef682610ecb565b9050919050565b610f0681610eeb565b8114610f1157600080fd5b50565b600081359050610f2381610efd565b92915050565b6000819050919050565b610f3c81610f29565b8114610f4757600080fd5b50565b600081359050610f5981610f33565b92915050565b60008060408385031215610f7657610f75610ec6565b5b6000610f8485828601610f14565b9250506020610f9585828601610f4a565b9150509250929050565b60008115159050919050565b610fb481610f9f565b82525050565b6000602082019050610fcf6000830184610fab565b92915050565b610fde81610eeb565b82525050565b6000602082019050610ff96000830184610fd5565b92915050565b61100881610f29565b82525050565b60006020820190506110236000830184610fff565b92915050565b60008060006060848603121561104257611041610ec6565b5b600061105086828701610f14565b935050602061106186828701610f14565b925050604061107286828701610f4a565b9150509250925092565b60006020828403121561109257611091610ec6565b5b60006110a084828501610f14565b91505092915050565b600060ff82169050919050565b6110bf816110a9565b82525050565b60006020820190506110da60008301846110b6565b92915050565b600080604083850312156110f7576110f6610ec6565b5b600061110585828601610f14565b925050602061111685828601610f14565b9150509250929050565b7f4e487b7100000000000000000000000000000000000000000000000000000000600052602260045260246000fd5b6000600282049050600182168061116757607f821691505b60208210810361117a57611179611120565b5b50919050565b7f4f776e657220616c726561647920736574210000000000000000000000000000600082015250565b60006111b6601283610e16565b91506111c182611180565b602082019050919050565b600060208201905081810360008301526111e5816111a9565b9050919050565b7f5065726d697373696f6e2064656e696564210000000000000000000000000000600082015250565b6000611222601283610e16565b915061122d826111ec565b602082019050919050565b6000602082019050818103600083015261125181611215565b9050919050565b7f4e6f7420656e6f75676820546f6b656e21000000000000000000000000000000600082015250565b600061128e601183610e16565b915061129982611258565b602082019050919050565b600060208201905081810360008301526112bd81611281565b9050919050565b7f4e487b7100000000000000000000000000000000000000000000000000000000600052601160045260246000fd5b60006112fe82610f29565b915061130983610f29565b92508282101561131c5761131b6112c4565b5b828203905092915050565b600061133282610f29565b915061133d83610f29565b9250827fffffffffffffffffffffffffffffffffffffffffffffffffffffffffffffffff03821115611372576113716112c4565b5b82820190509291505056fea2646970667358221220227af1143c3cd252be739faae6d12e7d8b996a1c43805d09bc9347c86463a36464736f6c634300080f0033",
  "immutableReferences": {},
  "source": "// SPDX-License-Identifier: MIT\npragma solidity ^0.8.0; //safe math not needed\n\nimport \"./IERC20.sol\";\n\ncontract PetToken is IERC20 {\n\n    string  private tokenName;\n    string  private tokenSymbol;\n    uint8   private tokenDecimals;\n    address private owner;\n\n    mapping(address => uint256) public balances;\n    mapping(address => mapping (address => uint256)) allowed;\n\n    uint256 totalSupply_ = 0;\n    \n    constructor() {\n        tokenName = \"Petcoin\";\n        tokenSymbol = \"^_^\";\n        tokenDecimals = 0;\n    }\n\n    modifier isOwner() {\n        require(owner == msg.sender, \"Permission denied!\");\n        _;\n    }\n\n    function setTokenOwner() external returns (address newOwner) {\n\t    require(owner == address(0), \"Owner already set!\");\n        owner = msg.sender;\n        return owner;\n    }\n\n    function totalSupply() external view returns (uint256) {\n\t    return totalSupply_;\n    }\n\n    function name() external view returns (string memory) {\n        return tokenName;\n    }\n\n    function symbol() external view returns (string memory) {\n        return tokenSymbol;\n    }\n\n    function decimals() external view returns (uint8) {\n        return tokenDecimals;\n    }\n\n    function balanceOf(address tokenOwner) external view returns (uint256) {\n        return balances[tokenOwner];\n    }\n\n    function transfer(address receiver, uint256 numTokens) external returns (bool success){\n        require(numTokens <= balances[msg.sender]);\n        balances[msg.sender] = balances[msg.sender] - numTokens;\n        balances[receiver] = balances[receiver] + numTokens;\n        emit Transfer(msg.sender, receiver, numTokens);\n        return true;\n    }\n\n    function approve(address delegate, uint256 numTokens) external returns (bool success) {\n        allowed[msg.sender][delegate] = numTokens;\n        emit Approval(msg.sender, delegate, numTokens);\n        return true;\n\t}\n\n    function allowance(address _owner, address _delegate) external view returns (uint) {\n\t    return allowed[_owner][_delegate];\n\t}\n\n    function transferFrom(address _owner, address buyer, uint256 numTokens) external isOwner returns (bool) {\n        require(numTokens <= balances[_owner], \"Not enough Token!\");\n        balances[_owner] = balances[_owner]-numTokens;\n        balances[buyer] = balances[buyer]+numTokens;\n        emit Transfer(_owner, buyer, numTokens);\n        return true;\n\t}\n\n    function mintToken (address account, uint256 value) external isOwner returns (bool success){\n      balances[account] += value;\n      totalSupply_ = totalSupply_ + value; \n      return true;\n   }\n\n   function burnToken (address account, uint256 value) external isOwner returns (bool success){\n      require(balances[account] >= value, \"Not enough Token!\");\n      balances[account] -= value;\n      totalSupply_ = totalSupply_ - value; \n      return true;\n   }\n\n\n}\n",
  "sourcePath": "/Users/georg/truffle/e01604873/contracts/PetToken.sol",
  "compiler": {
    "name": "solc",
    "version": "0.8.15+commit.e14f2714.Emscripten.clang"
  },
  "schemaVersion": "3.4.6",
  "updatedAt": "2022-06-16T20:07:48.545Z",
  "networkType": "ethereum",
  "devdoc": {
    "kind": "dev",
    "methods": {},
    "version": 1
  },
  "userdoc": {
    "kind": "user",
    "methods": {},
    "version": 1
  }
}