{
  "contractName": "Trades",
  "abi": [
    {
      "inputs": [],
      "stateMutability": "nonpayable",
      "type": "constructor"
    },
    {
      "inputs": [
        {
          "internalType": "address",
          "name": "",
          "type": "address"
        },
        {
          "internalType": "uint256",
          "name": "",
          "type": "uint256"
        }
      ],
      "name": "buyerTrades",
      "outputs": [
        {
          "internalType": "address",
          "name": "tradePartner",
          "type": "address"
        },
        {
          "internalType": "address",
          "name": "pet",
          "type": "address"
        },
        {
          "internalType": "uint256",
          "name": "price",
          "type": "uint256"
        }
      ],
      "stateMutability": "view",
      "type": "function"
    },
    {
      "inputs": [
        {
          "internalType": "address",
          "name": "",
          "type": "address"
        },
        {
          "internalType": "uint256",
          "name": "",
          "type": "uint256"
        }
      ],
      "name": "sellerTrades",
      "outputs": [
        {
          "internalType": "address",
          "name": "tradePartner",
          "type": "address"
        },
        {
          "internalType": "address",
          "name": "pet",
          "type": "address"
        },
        {
          "internalType": "uint256",
          "name": "price",
          "type": "uint256"
        }
      ],
      "stateMutability": "view",
      "type": "function"
    },
    {
      "inputs": [],
      "name": "getTradeRequests",
      "outputs": [
        {
          "components": [
            {
              "internalType": "address",
              "name": "tradePartner",
              "type": "address"
            },
            {
              "internalType": "address",
              "name": "pet",
              "type": "address"
            },
            {
              "internalType": "uint256",
              "name": "price",
              "type": "uint256"
            }
          ],
          "internalType": "struct Trades.Trade[]",
          "name": "",
          "type": "tuple[]"
        }
      ],
      "stateMutability": "view",
      "type": "function"
    },
    {
      "inputs": [
        {
          "internalType": "address",
          "name": "_from",
          "type": "address"
        },
        {
          "internalType": "address",
          "name": "_to",
          "type": "address"
        },
        {
          "internalType": "address",
          "name": "_pet",
          "type": "address"
        },
        {
          "internalType": "uint256",
          "name": "_value",
          "type": "uint256"
        }
      ],
      "name": "pushNewSellerTrade",
      "outputs": [],
      "stateMutability": "nonpayable",
      "type": "function"
    },
    {
      "inputs": [
        {
          "internalType": "address",
          "name": "_from",
          "type": "address"
        },
        {
          "internalType": "address",
          "name": "_to",
          "type": "address"
        },
        {
          "internalType": "address",
          "name": "_pet",
          "type": "address"
        },
        {
          "internalType": "uint256",
          "name": "_value",
          "type": "uint256"
        }
      ],
      "name": "pushNewBuyerTrade",
      "outputs": [],
      "stateMutability": "nonpayable",
      "type": "function"
    },
    {
      "inputs": [
        {
          "internalType": "address",
          "name": "_seller",
          "type": "address"
        },
        {
          "internalType": "address",
          "name": "_buyer",
          "type": "address"
        }
      ],
      "name": "deleteSellerTrade",
      "outputs": [],
      "stateMutability": "nonpayable",
      "type": "function"
    },
    {
      "inputs": [
        {
          "internalType": "address",
          "name": "_seller",
          "type": "address"
        },
        {
          "internalType": "address",
          "name": "_buyer",
          "type": "address"
        }
      ],
      "name": "deleteBuyerTrade",
      "outputs": [],
      "stateMutability": "nonpayable",
      "type": "function"
    }
  ],
  "bytecode": "0x608060405234801561001057600080fd5b50336000806101000a81548173ffffffffffffffffffffffffffffffffffffffff021916908373ffffffffffffffffffffffffffffffffffffffff1602179055506114f3806100606000396000f3fe608060405234801561001057600080fd5b506004361061007d5760003560e01c80634f18f54b1161005b5780634f18f54b146100ee57806371c0b8ed14610120578063d84a1d531461013c578063e45de784146101585761007d565b8063276fe7121461008257806334588bc5146100b45780634e6e35d2146100d2575b600080fd5b61009c600480360381019061009791906110ca565b610174565b6040516100ab93929190611128565b60405180910390f35b6100bc6101fb565b6040516100c9919061126e565b60405180910390f35b6100ec60048036038101906100e79190611290565b61034d565b005b610108600480360381019061010391906110ca565b61052a565b60405161011793929190611128565b60405180910390f35b61013a600480360381019061013591906112f7565b6105b1565b005b61015660048036038101906101519190611290565b610a02565b005b610172600480360381019061016d91906112f7565b610bdf565b005b6002602052816000526040600020818154811061019057600080fd5b9060005260206000209060030201600091509150508060000160009054906101000a900473ffffffffffffffffffffffffffffffffffffffff16908060010160009054906101000a900473ffffffffffffffffffffffffffffffffffffffff16908060020154905083565b6060600260003373ffffffffffffffffffffffffffffffffffffffff1673ffffffffffffffffffffffffffffffffffffffff168152602001908152602001600020805480602002602001604051908101604052809291908181526020016000905b8282101561034457838290600052602060002090600302016040518060600160405290816000820160009054906101000a900473ffffffffffffffffffffffffffffffffffffffff1673ffffffffffffffffffffffffffffffffffffffff1673ffffffffffffffffffffffffffffffffffffffff1681526020016001820160009054906101000a900473ffffffffffffffffffffffffffffffffffffffff1673ffffffffffffffffffffffffffffffffffffffff1673ffffffffffffffffffffffffffffffffffffffff1681526020016002820154815250508152602001906001019061025c565b50505050905090565b3373ffffffffffffffffffffffffffffffffffffffff1660008054906101000a900473ffffffffffffffffffffffffffffffffffffffff1673ffffffffffffffffffffffffffffffffffffffff16146103db576040517f08c379a00000000000000000000000000000000000000000000000000000000081526004016103d290611394565b60405180910390fd5b600260008573ffffffffffffffffffffffffffffffffffffffff1673ffffffffffffffffffffffffffffffffffffffff16815260200190815260200160002060405180606001604052808573ffffffffffffffffffffffffffffffffffffffff1681526020018473ffffffffffffffffffffffffffffffffffffffff16815260200183815250908060018154018082558091505060019003906000526020600020906003020160009091909190915060008201518160000160006101000a81548173ffffffffffffffffffffffffffffffffffffffff021916908373ffffffffffffffffffffffffffffffffffffffff16021790555060208201518160010160006101000a81548173ffffffffffffffffffffffffffffffffffffffff021916908373ffffffffffffffffffffffffffffffffffffffff16021790555060408201518160020155505050505050565b6001602052816000526040600020818154811061054657600080fd5b9060005260206000209060030201600091509150508060000160009054906101000a900473ffffffffffffffffffffffffffffffffffffffff16908060010160009054906101000a900473ffffffffffffffffffffffffffffffffffffffff16908060020154905083565b3373ffffffffffffffffffffffffffffffffffffffff1660008054906101000a900473ffffffffffffffffffffffffffffffffffffffff1673ffffffffffffffffffffffffffffffffffffffff161461063f576040517f08c379a000000000000000000000000000000000000000000000000000000000815260040161063690611394565b60405180910390fd5b60005b600160008473ffffffffffffffffffffffffffffffffffffffff1673ffffffffffffffffffffffffffffffffffffffff168152602001908152602001600020805490508110156109fd578173ffffffffffffffffffffffffffffffffffffffff16600160008573ffffffffffffffffffffffffffffffffffffffff1673ffffffffffffffffffffffffffffffffffffffff16815260200190815260200160002082815481106106f4576106f36113b4565b5b906000526020600020906003020160000160009054906101000a900473ffffffffffffffffffffffffffffffffffffffff1673ffffffffffffffffffffffffffffffffffffffff16036109ea57600160008473ffffffffffffffffffffffffffffffffffffffff1673ffffffffffffffffffffffffffffffffffffffff16815260200190815260200160002060018060008673ffffffffffffffffffffffffffffffffffffffff1673ffffffffffffffffffffffffffffffffffffffff168152602001908152602001600020805490506107ce9190611412565b815481106107df576107de6113b4565b5b9060005260206000209060030201600160008573ffffffffffffffffffffffffffffffffffffffff1673ffffffffffffffffffffffffffffffffffffffff168152602001908152602001600020828154811061083e5761083d6113b4565b5b90600052602060002090600302016000820160009054906101000a900473ffffffffffffffffffffffffffffffffffffffff168160000160006101000a81548173ffffffffffffffffffffffffffffffffffffffff021916908373ffffffffffffffffffffffffffffffffffffffff1602179055506001820160009054906101000a900473ffffffffffffffffffffffffffffffffffffffff168160010160006101000a81548173ffffffffffffffffffffffffffffffffffffffff021916908373ffffffffffffffffffffffffffffffffffffffff16021790555060028201548160020155905050600160008473ffffffffffffffffffffffffffffffffffffffff1673ffffffffffffffffffffffffffffffffffffffff16815260200190815260200160002080548061097657610975611446565b5b6001900381819060005260206000209060030201600080820160006101000a81549073ffffffffffffffffffffffffffffffffffffffff02191690556001820160006101000a81549073ffffffffffffffffffffffffffffffffffffffff02191690556002820160009055505090556109fd565b80806109f590611475565b915050610642565b505050565b3373ffffffffffffffffffffffffffffffffffffffff1660008054906101000a900473ffffffffffffffffffffffffffffffffffffffff1673ffffffffffffffffffffffffffffffffffffffff1614610a90576040517f08c379a0000000000000000000000000000000000000000000000000000000008152600401610a8790611394565b60405180910390fd5b600160008573ffffffffffffffffffffffffffffffffffffffff1673ffffffffffffffffffffffffffffffffffffffff16815260200190815260200160002060405180606001604052808573ffffffffffffffffffffffffffffffffffffffff1681526020018473ffffffffffffffffffffffffffffffffffffffff16815260200183815250908060018154018082558091505060019003906000526020600020906003020160009091909190915060008201518160000160006101000a81548173ffffffffffffffffffffffffffffffffffffffff021916908373ffffffffffffffffffffffffffffffffffffffff16021790555060208201518160010160006101000a81548173ffffffffffffffffffffffffffffffffffffffff021916908373ffffffffffffffffffffffffffffffffffffffff16021790555060408201518160020155505050505050565b3373ffffffffffffffffffffffffffffffffffffffff1660008054906101000a900473ffffffffffffffffffffffffffffffffffffffff1673ffffffffffffffffffffffffffffffffffffffff1614610c6d576040517f08c379a0000000000000000000000000000000000000000000000000000000008152600401610c6490611394565b60405180910390fd5b60005b600260008373ffffffffffffffffffffffffffffffffffffffff1673ffffffffffffffffffffffffffffffffffffffff1681526020019081526020016000208054905081101561102c578273ffffffffffffffffffffffffffffffffffffffff16600260008473ffffffffffffffffffffffffffffffffffffffff1673ffffffffffffffffffffffffffffffffffffffff1681526020019081526020016000208281548110610d2257610d216113b4565b5b906000526020600020906003020160000160009054906101000a900473ffffffffffffffffffffffffffffffffffffffff1673ffffffffffffffffffffffffffffffffffffffff160361101957600260008373ffffffffffffffffffffffffffffffffffffffff1673ffffffffffffffffffffffffffffffffffffffff1681526020019081526020016000206001600260008573ffffffffffffffffffffffffffffffffffffffff1673ffffffffffffffffffffffffffffffffffffffff16815260200190815260200160002080549050610dfd9190611412565b81548110610e0e57610e0d6113b4565b5b9060005260206000209060030201600260008473ffffffffffffffffffffffffffffffffffffffff1673ffffffffffffffffffffffffffffffffffffffff1681526020019081526020016000208281548110610e6d57610e6c6113b4565b5b90600052602060002090600302016000820160009054906101000a900473ffffffffffffffffffffffffffffffffffffffff168160000160006101000a81548173ffffffffffffffffffffffffffffffffffffffff021916908373ffffffffffffffffffffffffffffffffffffffff1602179055506001820160009054906101000a900473ffffffffffffffffffffffffffffffffffffffff168160010160006101000a81548173ffffffffffffffffffffffffffffffffffffffff021916908373ffffffffffffffffffffffffffffffffffffffff16021790555060028201548160020155905050600260008373ffffffffffffffffffffffffffffffffffffffff1673ffffffffffffffffffffffffffffffffffffffff168152602001908152602001600020805480610fa557610fa4611446565b5b6001900381819060005260206000209060030201600080820160006101000a81549073ffffffffffffffffffffffffffffffffffffffff02191690556001820160006101000a81549073ffffffffffffffffffffffffffffffffffffffff021916905560028201600090555050905561102c565b808061102490611475565b915050610c70565b505050565b600080fd5b600073ffffffffffffffffffffffffffffffffffffffff82169050919050565b600061106182611036565b9050919050565b61107181611056565b811461107c57600080fd5b50565b60008135905061108e81611068565b92915050565b6000819050919050565b6110a781611094565b81146110b257600080fd5b50565b6000813590506110c48161109e565b92915050565b600080604083850312156110e1576110e0611031565b5b60006110ef8582860161107f565b9250506020611100858286016110b5565b9150509250929050565b61111381611056565b82525050565b61112281611094565b82525050565b600060608201905061113d600083018661110a565b61114a602083018561110a565b6111576040830184611119565b949350505050565b600081519050919050565b600082825260208201905092915050565b6000819050602082019050919050565b61119481611056565b82525050565b6111a381611094565b82525050565b6060820160008201516111bf600085018261118b565b5060208201516111d2602085018261118b565b5060408201516111e5604085018261119a565b50505050565b60006111f783836111a9565b60608301905092915050565b6000602082019050919050565b600061121b8261115f565b611225818561116a565b93506112308361117b565b8060005b8381101561126157815161124888826111eb565b975061125383611203565b925050600181019050611234565b5085935050505092915050565b600060208201905081810360008301526112888184611210565b905092915050565b600080600080608085870312156112aa576112a9611031565b5b60006112b88782880161107f565b94505060206112c98782880161107f565b93505060406112da8782880161107f565b92505060606112eb878288016110b5565b91505092959194509250565b6000806040838503121561130e5761130d611031565b5b600061131c8582860161107f565b925050602061132d8582860161107f565b9150509250929050565b600082825260208201905092915050565b7f7065726d697373696f6e2064656e696564210000000000000000000000000000600082015250565b600061137e601283611337565b915061138982611348565b602082019050919050565b600060208201905081810360008301526113ad81611371565b9050919050565b7f4e487b7100000000000000000000000000000000000000000000000000000000600052603260045260246000fd5b7f4e487b7100000000000000000000000000000000000000000000000000000000600052601160045260246000fd5b600061141d82611094565b915061142883611094565b92508282101561143b5761143a6113e3565b5b828203905092915050565b7f4e487b7100000000000000000000000000000000000000000000000000000000600052603160045260246000fd5b600061148082611094565b91507fffffffffffffffffffffffffffffffffffffffffffffffffffffffffffffffff82036114b2576114b16113e3565b5b60018201905091905056fea2646970667358221220ecf4fe4232f5a792d2f6ffaf0e3897eae9ce9e73f98278298c33cc5a73ec5f0464736f6c634300080f0033",
  "immutableReferences": {},
  "source": "// SPDX-License-Identifier: MIT\npragma solidity ^0.8.0; //safe math not needed\n\nimport \"./IERC20.sol\";\nimport \"./PetToken.sol\";\nimport \"./VirtualPet.sol\";\n\ncontract Trades {\n\n    struct Trade { \n            address tradePartner;\n            address pet;\n            uint price;\n    }\n\n    address private owner;\n\n    //store all trades\n    mapping(address => Trade[]) public sellerTrades;\n    mapping(address => Trade[]) public buyerTrades;\n\n\n    constructor(){\n        owner = msg.sender;\n    }\n\n    modifier isOwner() {\n        require(owner == msg.sender, \"permission denied!\");\n        _;\n    }\n\n    function getTradeRequests () external view returns(Trade[] memory) {\n        return(buyerTrades[msg.sender]);\n    }\n\n    function pushNewSellerTrade (address _from, address _to, address _pet, uint _value) external isOwner {\n        sellerTrades[_from].push(Trade(_to, _pet, _value));\n    }\n    function pushNewBuyerTrade (address _from, address _to, address _pet, uint _value) external isOwner {\n        buyerTrades[_from].push(Trade(_to, _pet, _value));\n    }\n\n    function deleteSellerTrade (address _seller, address _buyer) external isOwner {\n        //delete Seller Trade\n        for (uint i = 0; i < sellerTrades[_seller].length; i++) {\n            if (sellerTrades[_seller][i].tradePartner == _buyer) {\n                sellerTrades[_seller][i] = sellerTrades[_seller][sellerTrades[_seller].length - 1];\n                sellerTrades[_seller].pop();\n                break;\n            }\n        }\n    }\n\n    function deleteBuyerTrade (address _seller, address _buyer) external isOwner {\n        //delete Buyer Trade\n        for (uint i = 0; i < buyerTrades[_buyer].length; i++) {\n            if (buyerTrades[_buyer][i].tradePartner == _seller) {\n                buyerTrades[_buyer][i] = buyerTrades[_buyer][buyerTrades[_buyer].length - 1];\n                buyerTrades[_buyer].pop();\n                break;\n            }\n        }\n    }\n    \n}",
  "sourcePath": "/Users/georg/truffle/e01604873/contracts/Trades.sol",
  "compiler": {
    "name": "solc",
    "version": "0.8.15+commit.e14f2714.Emscripten.clang"
  },
  "schemaVersion": "3.4.6",
  "updatedAt": "2022-06-16T20:08:09.291Z",
  "devdoc": {
    "kind": "dev",
    "methods": {},
    "version": 1
  },
  "userdoc": {
    "kind": "user",
    "methods": {},
    "version": 1
  }
}